{
  "abi": [
    {
      "inputs": [
        {
          "internalType": "contract ERC20",
          "name": "_underlying",
          "type": "address"
        },
        {
          "internalType": "string",
          "name": "_name",
          "type": "string"
        },
        {
          "internalType": "string",
          "name": "_symbol",
          "type": "string"
        },
        {
          "internalType": "address",
          "name": "_farmer",
          "type": "address"
        }
      ],
      "stateMutability": "nonpayable",
      "type": "constructor"
    },
    {
      "inputs": [],
      "name": "DisallowBase4626",
      "type": "error"
    },
    {
      "anonymous": false,
      "inputs": [
        {
          "indexed": true,
          "internalType": "address",
          "name": "owner",
          "type": "address"
        },
        {
          "indexed": true,
          "internalType": "address",
          "name": "spender",
          "type": "address"
        },
        {
          "indexed": false,
          "internalType": "uint256",
          "name": "amount",
          "type": "uint256"
        }
      ],
      "name": "Approval",
      "type": "event"
    },
    {
      "anonymous": false,
      "inputs": [
        {
          "indexed": true,
          "internalType": "address",
          "name": "user",
          "type": "address"
        },
        {
          "indexed": true,
          "internalType": "contract Authority",
          "name": "newAuthority",
          "type": "address"
        }
      ],
      "name": "AuthorityUpdated",
      "type": "event"
    },
    {
      "anonymous": false,
      "inputs": [
        {
          "indexed": true,
          "internalType": "address",
          "name": "caller",
          "type": "address"
        },
        {
          "indexed": true,
          "internalType": "address",
          "name": "owner",
          "type": "address"
        },
        {
          "indexed": false,
          "internalType": "uint256",
          "name": "assets",
          "type": "uint256"
        },
        {
          "indexed": false,
          "internalType": "uint256",
          "name": "shares",
          "type": "uint256"
        }
      ],
      "name": "Deposit",
      "type": "event"
    },
    {
      "anonymous": false,
      "inputs": [
        {
          "indexed": false,
          "internalType": "uint256",
          "name": "epoch",
          "type": "uint256"
        },
        {
          "indexed": false,
          "internalType": "uint256",
          "name": "endingAssets",
          "type": "uint256"
        }
      ],
      "name": "EpochEnd",
      "type": "event"
    },
    {
      "anonymous": false,
      "inputs": [
        {
          "indexed": false,
          "internalType": "uint256",
          "name": "epoch",
          "type": "uint256"
        },
        {
          "indexed": false,
          "internalType": "uint256",
          "name": "startingAssets",
          "type": "uint256"
        }
      ],
      "name": "EpochStart",
      "type": "event"
    },
    {
      "anonymous": false,
      "inputs": [
        {
          "indexed": false,
          "internalType": "uint256",
          "name": "amount",
          "type": "uint256"
        }
      ],
      "name": "ManagementFeeSent",
      "type": "event"
    },
    {
      "anonymous": false,
      "inputs": [
        {
          "indexed": true,
          "internalType": "address",
          "name": "user",
          "type": "address"
        },
        {
          "indexed": true,
          "internalType": "address",
          "name": "newOwner",
          "type": "address"
        }
      ],
      "name": "OwnerUpdated",
      "type": "event"
    },
    {
      "anonymous": false,
      "inputs": [
        {
          "indexed": true,
          "internalType": "address",
          "name": "from",
          "type": "address"
        },
        {
          "indexed": true,
          "internalType": "address",
          "name": "to",
          "type": "address"
        },
        {
          "indexed": false,
          "internalType": "uint256",
          "name": "amount",
          "type": "uint256"
        }
      ],
      "name": "Transfer",
      "type": "event"
    },
    {
      "anonymous": false,
      "inputs": [
        {
          "indexed": true,
          "internalType": "address",
          "name": "user",
          "type": "address"
        },
        {
          "indexed": false,
          "internalType": "uint256",
          "name": "amount",
          "type": "uint256"
        }
      ],
      "name": "UserDeposit",
      "type": "event"
    },
    {
      "anonymous": false,
      "inputs": [
        {
          "indexed": true,
          "internalType": "address",
          "name": "user",
          "type": "address"
        },
        {
          "indexed": false,
          "internalType": "uint256",
          "name": "amount",
          "type": "uint256"
        }
      ],
      "name": "UserUnlock",
      "type": "event"
    },
    {
      "anonymous": false,
      "inputs": [
        {
          "indexed": true,
          "internalType": "address",
          "name": "user",
          "type": "address"
        },
        {
          "indexed": false,
          "internalType": "uint256",
          "name": "amount",
          "type": "uint256"
        }
      ],
      "name": "UserWithdraw",
      "type": "event"
    },
    {
      "anonymous": false,
      "inputs": [
        {
          "indexed": true,
          "internalType": "address",
          "name": "caller",
          "type": "address"
        },
        {
          "indexed": true,
          "internalType": "address",
          "name": "receiver",
          "type": "address"
        },
        {
          "indexed": true,
          "internalType": "address",
          "name": "owner",
          "type": "address"
        },
        {
          "indexed": false,
          "internalType": "uint256",
          "name": "assets",
          "type": "uint256"
        },
        {
          "indexed": false,
          "internalType": "uint256",
          "name": "shares",
          "type": "uint256"
        }
      ],
      "name": "Withdraw",
      "type": "event"
    },
    {
      "inputs": [],
      "name": "DOMAIN_SEPARATOR",
      "outputs": [
        {
          "internalType": "bytes32",
          "name": "",
          "type": "bytes32"
        }
      ],
      "stateMutability": "view",
      "type": "function"
    },
    {
      "inputs": [
        {
          "internalType": "address",
          "name": "",
          "type": "address"
        },
        {
          "internalType": "address",
          "name": "",
          "type": "address"
        }
      ],
      "name": "allowance",
      "outputs": [
        {
          "internalType": "uint256",
          "name": "",
          "type": "uint256"
        }
      ],
      "stateMutability": "view",
      "type": "function"
    },
    {
      "inputs": [
        {
          "internalType": "address",
          "name": "spender",
          "type": "address"
        },
        {
          "internalType": "uint256",
          "name": "amount",
          "type": "uint256"
        }
      ],
      "name": "approve",
      "outputs": [
        {
          "internalType": "bool",
          "name": "",
          "type": "bool"
        }
      ],
      "stateMutability": "nonpayable",
      "type": "function"
    },
    {
      "inputs": [],
      "name": "asset",
      "outputs": [
        {
          "internalType": "contract ERC20",
          "name": "",
          "type": "address"
        }
      ],
      "stateMutability": "view",
      "type": "function"
    },
    {
      "inputs": [],
      "name": "aum",
      "outputs": [
        {
          "internalType": "uint256",
          "name": "",
          "type": "uint256"
        }
      ],
      "stateMutability": "view",
      "type": "function"
    },
    {
      "inputs": [],
      "name": "aumCap",
      "outputs": [
        {
          "internalType": "uint256",
          "name": "",
          "type": "uint256"
        }
      ],
      "stateMutability": "view",
      "type": "function"
    },
    {
      "inputs": [],
      "name": "authority",
      "outputs": [
        {
          "internalType": "contract Authority",
          "name": "",
          "type": "address"
        }
      ],
      "stateMutability": "view",
      "type": "function"
    },
    {
      "inputs": [
        {
          "internalType": "address",
          "name": "",
          "type": "address"
        }
      ],
      "name": "balanceOf",
      "outputs": [
        {
          "internalType": "uint256",
          "name": "",
          "type": "uint256"
        }
      ],
      "stateMutability": "view",
      "type": "function"
    },
    {
      "inputs": [],
      "name": "claimAsset",
      "outputs": [],
      "stateMutability": "nonpayable",
      "type": "function"
    },
    {
      "inputs": [],
      "name": "claimFee",
      "outputs": [],
      "stateMutability": "nonpayable",
      "type": "function"
    },
    {
      "inputs": [
        {
          "internalType": "uint256",
          "name": "shares",
          "type": "uint256"
        }
      ],
      "name": "convertToAssets",
      "outputs": [
        {
          "internalType": "uint256",
          "name": "",
          "type": "uint256"
        }
      ],
      "stateMutability": "view",
      "type": "function"
    },
    {
      "inputs": [
        {
          "internalType": "uint256",
          "name": "assets",
          "type": "uint256"
        }
      ],
      "name": "convertToShares",
      "outputs": [
        {
          "internalType": "uint256",
          "name": "",
          "type": "uint256"
        }
      ],
      "stateMutability": "view",
      "type": "function"
    },
    {
      "inputs": [],
      "name": "decimals",
      "outputs": [
        {
          "internalType": "uint8",
          "name": "",
          "type": "uint8"
        }
      ],
      "stateMutability": "view",
      "type": "function"
    },
    {
      "inputs": [
        {
          "internalType": "uint256",
          "name": "",
          "type": "uint256"
        },
        {
          "internalType": "address",
          "name": "",
          "type": "address"
        }
      ],
      "name": "deposit",
      "outputs": [
        {
          "internalType": "uint256",
          "name": "",
          "type": "uint256"
        }
      ],
      "stateMutability": "pure",
      "type": "function"
    },
    {
      "inputs": [],
      "name": "epoch",
      "outputs": [
        {
          "internalType": "uint256",
          "name": "",
          "type": "uint256"
        }
      ],
      "stateMutability": "view",
      "type": "function"
    },
    {
      "inputs": [
        {
          "internalType": "uint256",
          "name": "_epoch",
          "type": "uint256"
        }
      ],
      "name": "epochExchangeRate",
      "outputs": [
        {
          "internalType": "uint256",
          "name": "",
          "type": "uint256"
        }
      ],
      "stateMutability": "view",
      "type": "function"
    },
    {
      "inputs": [],
      "name": "farmer",
      "outputs": [
        {
          "internalType": "address",
          "name": "",
          "type": "address"
        }
      ],
      "stateMutability": "view",
      "type": "function"
    },
    {
      "inputs": [],
      "name": "feeDistributor",
      "outputs": [
        {
          "internalType": "address",
          "name": "",
          "type": "address"
        }
      ],
      "stateMutability": "view",
      "type": "function"
    },
    {
      "inputs": [
        {
          "internalType": "address",
          "name": "",
          "type": "address"
        }
      ],
      "name": "maxDeposit",
      "outputs": [
        {
          "internalType": "uint256",
          "name": "",
          "type": "uint256"
        }
      ],
      "stateMutability": "view",
      "type": "function"
    },
    {
      "inputs": [
        {
          "internalType": "address",
          "name": "",
          "type": "address"
        }
      ],
      "name": "maxMint",
      "outputs": [
        {
          "internalType": "uint256",
          "name": "",
          "type": "uint256"
        }
      ],
      "stateMutability": "view",
      "type": "function"
    },
    {
      "inputs": [
        {
          "internalType": "address",
          "name": "owner",
          "type": "address"
        }
      ],
      "name": "maxRedeem",
      "outputs": [
        {
          "internalType": "uint256",
          "name": "",
          "type": "uint256"
        }
      ],
      "stateMutability": "view",
      "type": "function"
    },
    {
      "inputs": [
        {
          "internalType": "address",
          "name": "owner",
          "type": "address"
        }
      ],
      "name": "maxWithdraw",
      "outputs": [
        {
          "internalType": "uint256",
          "name": "",
          "type": "uint256"
        }
      ],
      "stateMutability": "view",
      "type": "function"
    },
    {
      "inputs": [
        {
          "internalType": "uint256",
          "name": "",
          "type": "uint256"
        },
        {
          "internalType": "address",
          "name": "",
          "type": "address"
        }
      ],
      "name": "mint",
      "outputs": [
        {
          "internalType": "uint256",
          "name": "",
          "type": "uint256"
        }
      ],
      "stateMutability": "pure",
      "type": "function"
    },
    {
      "inputs": [],
      "name": "name",
      "outputs": [
        {
          "internalType": "string",
          "name": "",
          "type": "string"
        }
      ],
      "stateMutability": "view",
      "type": "function"
    },
    {
      "inputs": [
        {
          "internalType": "address",
          "name": "",
          "type": "address"
        }
      ],
      "name": "nonces",
      "outputs": [
        {
          "internalType": "uint256",
          "name": "",
          "type": "uint256"
        }
      ],
      "stateMutability": "view",
      "type": "function"
    },
    {
      "inputs": [],
      "name": "owner",
      "outputs": [
        {
          "internalType": "address",
          "name": "",
          "type": "address"
        }
      ],
      "stateMutability": "view",
      "type": "function"
    },
    {
      "inputs": [
        {
          "internalType": "address",
          "name": "owner",
          "type": "address"
        },
        {
          "internalType": "address",
          "name": "spender",
          "type": "address"
        },
        {
          "internalType": "uint256",
          "name": "value",
          "type": "uint256"
        },
        {
          "internalType": "uint256",
          "name": "deadline",
          "type": "uint256"
        },
        {
          "internalType": "uint8",
          "name": "v",
          "type": "uint8"
        },
        {
          "internalType": "bytes32",
          "name": "r",
          "type": "bytes32"
        },
        {
          "internalType": "bytes32",
          "name": "s",
          "type": "bytes32"
        }
      ],
      "name": "permit",
      "outputs": [],
      "stateMutability": "nonpayable",
      "type": "function"
    },
    {
      "inputs": [
        {
          "internalType": "address",
          "name": "_user",
          "type": "address"
        }
      ],
      "name": "previewClaim",
      "outputs": [
        {
          "internalType": "uint256",
          "name": "",
          "type": "uint256"
        }
      ],
      "stateMutability": "view",
      "type": "function"
    },
    {
      "inputs": [
        {
          "internalType": "uint256",
          "name": "assets",
          "type": "uint256"
        }
      ],
      "name": "previewDeposit",
      "outputs": [
        {
          "internalType": "uint256",
          "name": "",
          "type": "uint256"
        }
      ],
      "stateMutability": "view",
      "type": "function"
    },
    {
      "inputs": [
        {
          "internalType": "uint256",
          "name": "shares",
          "type": "uint256"
        }
      ],
      "name": "previewMint",
      "outputs": [
        {
          "internalType": "uint256",
          "name": "",
          "type": "uint256"
        }
      ],
      "stateMutability": "view",
      "type": "function"
    },
    {
      "inputs": [
        {
          "internalType": "uint256",
          "name": "_externalAsset",
          "type": "uint256"
        }
      ],
      "name": "previewProgress",
      "outputs": [
        {
          "internalType": "bool",
          "name": "",
          "type": "bool"
        },
        {
          "internalType": "uint256",
          "name": "",
          "type": "uint256"
        }
      ],
      "stateMutability": "view",
      "type": "function"
    },
    {
      "inputs": [
        {
          "internalType": "uint256",
          "name": "shares",
          "type": "uint256"
        }
      ],
      "name": "previewRedeem",
      "outputs": [
        {
          "internalType": "uint256",
          "name": "",
          "type": "uint256"
        }
      ],
      "stateMutability": "view",
      "type": "function"
    },
    {
      "inputs": [
        {
          "internalType": "uint256",
          "name": "assets",
          "type": "uint256"
        }
      ],
      "name": "previewWithdraw",
      "outputs": [
        {
          "internalType": "uint256",
          "name": "",
          "type": "uint256"
        }
      ],
      "stateMutability": "view",
      "type": "function"
    },
    {
      "inputs": [
        {
          "internalType": "uint256",
          "name": "_externalAssetBeforeFees",
          "type": "uint256"
        }
      ],
      "name": "progressEpoch",
      "outputs": [
        {
          "internalType": "uint256",
          "name": "",
          "type": "uint256"
        }
      ],
      "stateMutability": "nonpayable",
      "type": "function"
    },
    {
      "inputs": [
        {
          "internalType": "uint256",
          "name": "",
          "type": "uint256"
        },
        {
          "internalType": "address",
          "name": "",
          "type": "address"
        },
        {
          "internalType": "address",
          "name": "",
          "type": "address"
        }
      ],
      "name": "redeem",
      "outputs": [
        {
          "internalType": "uint256",
          "name": "",
          "type": "uint256"
        }
      ],
      "stateMutability": "pure",
      "type": "function"
    },
    {
      "inputs": [
        {
          "internalType": "contract Authority",
          "name": "newAuthority",
          "type": "address"
        }
      ],
      "name": "setAuthority",
      "outputs": [],
      "stateMutability": "nonpayable",
      "type": "function"
    },
    {
      "inputs": [
        {
          "internalType": "address",
          "name": "newOwner",
          "type": "address"
        }
      ],
      "name": "setOwner",
      "outputs": [],
      "stateMutability": "nonpayable",
      "type": "function"
    },
    {
      "inputs": [
        {
          "internalType": "uint256",
          "name": "_initialExternalAsset",
          "type": "uint256"
        },
        {
          "internalType": "uint256",
          "name": "_aumCap",
          "type": "uint256"
        }
      ],
      "name": "startVault",
      "outputs": [],
      "stateMutability": "nonpayable",
      "type": "function"
    },
    {
      "inputs": [
        {
          "internalType": "uint256",
          "name": "_assets",
          "type": "uint256"
        }
      ],
      "name": "storeAssetForDeposit",
      "outputs": [],
      "stateMutability": "nonpayable",
      "type": "function"
    },
    {
      "inputs": [],
      "name": "symbol",
      "outputs": [
        {
          "internalType": "string",
          "name": "",
          "type": "string"
        }
      ],
      "stateMutability": "view",
      "type": "function"
    },
    {
      "inputs": [],
      "name": "totalAssets",
      "outputs": [
        {
          "internalType": "uint256",
          "name": "",
          "type": "uint256"
        }
      ],
      "stateMutability": "view",
      "type": "function"
    },
    {
      "inputs": [],
      "name": "totalSupply",
      "outputs": [
        {
          "internalType": "uint256",
          "name": "",
          "type": "uint256"
        }
      ],
      "stateMutability": "view",
      "type": "function"
    },
    {
      "inputs": [
        {
          "internalType": "address",
          "name": "to",
          "type": "address"
        },
        {
          "internalType": "uint256",
          "name": "amount",
          "type": "uint256"
        }
      ],
      "name": "transfer",
      "outputs": [
        {
          "internalType": "bool",
          "name": "",
          "type": "bool"
        }
      ],
      "stateMutability": "nonpayable",
      "type": "function"
    },
    {
      "inputs": [
        {
          "internalType": "address",
          "name": "from",
          "type": "address"
        },
        {
          "internalType": "address",
          "name": "to",
          "type": "address"
        },
        {
          "internalType": "uint256",
          "name": "amount",
          "type": "uint256"
        }
      ],
      "name": "transferFrom",
      "outputs": [
        {
          "internalType": "bool",
          "name": "",
          "type": "bool"
        }
      ],
      "stateMutability": "nonpayable",
      "type": "function"
    },
    {
      "inputs": [
        {
          "internalType": "uint256",
          "name": "_shares",
          "type": "uint256"
        }
      ],
      "name": "unlockShareForRedeem",
      "outputs": [],
      "stateMutability": "nonpayable",
      "type": "function"
    },
    {
      "inputs": [
        {
          "internalType": "uint256",
          "name": "_aumCap",
          "type": "uint256"
        }
      ],
      "name": "updateAumCap",
      "outputs": [],
      "stateMutability": "nonpayable",
      "type": "function"
    },
    {
      "inputs": [
        {
          "internalType": "bool",
          "name": "_isFeeEnabled",
          "type": "bool"
        },
        {
          "internalType": "uint256",
          "name": "_entryFee",
          "type": "uint256"
        },
        {
          "internalType": "uint256",
          "name": "_exitFee",
          "type": "uint256"
        },
        {
          "internalType": "uint256",
          "name": "_managementFee",
          "type": "uint256"
        }
      ],
      "name": "updateFeeSettings",
      "outputs": [],
      "stateMutability": "nonpayable",
      "type": "function"
    },
    {
      "inputs": [
        {
          "internalType": "address",
          "name": "_user",
          "type": "address"
        }
      ],
      "name": "updatePendingUserState",
      "outputs": [],
      "stateMutability": "nonpayable",
      "type": "function"
    },
    {
      "inputs": [
        {
          "internalType": "address",
          "name": "_user",
          "type": "address"
        }
      ],
      "name": "userHasPendingRedeem",
      "outputs": [
        {
          "internalType": "bool",
          "name": "",
          "type": "bool"
        }
      ],
      "stateMutability": "view",
      "type": "function"
    },
    {
      "inputs": [
        {
          "internalType": "address",
          "name": "_user",
          "type": "address"
        }
      ],
      "name": "userHasPendingUpdate",
      "outputs": [
        {
          "internalType": "bool",
          "name": "",
          "type": "bool"
        }
      ],
      "stateMutability": "view",
      "type": "function"
    },
    {
      "inputs": [
        {
          "internalType": "uint256",
          "name": "",
          "type": "uint256"
        }
      ],
      "name": "vaultStates",
      "outputs": [
        {
          "internalType": "uint256",
          "name": "assetsExternalStart",
          "type": "uint256"
        },
        {
          "internalType": "uint256",
          "name": "assetsToDeposit",
          "type": "uint256"
        },
        {
          "internalType": "uint256",
          "name": "sharesToRedeem",
          "type": "uint256"
        },
        {
          "internalType": "uint256",
          "name": "assetsExternalEnd",
          "type": "uint256"
        },
        {
          "internalType": "uint256",
          "name": "totalSupply",
          "type": "uint256"
        }
      ],
      "stateMutability": "view",
      "type": "function"
    },
    {
      "inputs": [
        {
          "internalType": "address",
          "name": "",
          "type": "address"
        }
      ],
      "name": "vaultUsers",
      "outputs": [
        {
          "internalType": "uint256",
          "name": "assetsDeposited",
          "type": "uint256"
        },
        {
          "internalType": "uint256",
          "name": "epochLastDeposited",
          "type": "uint256"
        },
        {
          "internalType": "uint256",
          "name": "vaultShares",
          "type": "uint256"
        },
        {
          "internalType": "uint256",
          "name": "sharesToRedeem",
          "type": "uint256"
        },
        {
          "internalType": "uint256",
          "name": "epochToRedeem",
          "type": "uint256"
        }
      ],
      "stateMutability": "view",
      "type": "function"
    },
    {
      "inputs": [
        {
          "internalType": "uint256",
          "name": "",
          "type": "uint256"
        },
        {
          "internalType": "address",
          "name": "",
          "type": "address"
        },
        {
          "internalType": "address",
          "name": "",
          "type": "address"
        }
      ],
      "name": "withdraw",
      "outputs": [
        {
          "internalType": "uint256",
          "name": "",
          "type": "uint256"
        }
      ],
      "stateMutability": "pure",
      "type": "function"
    }
  ],
  "bytecode": {
    "object": "0x610100604052600060088190556009819055600a556107d0600e556064600f8190556010556012805460ff191690553480156200003b57600080fd5b5060405162002d9738038062002d978339810160408190526200005e916200034d565b8060008585858181846001600160a01b031663313ce5676040518163ffffffff1660e01b8152600401602060405180830381865afa158015620000a5573d6000803e3d6000fd5b505050506040513d601f19601f82011682018060405250810190620000cb9190620003e1565b6000620000d984826200049c565b506001620000e883826200049c565b5060ff81166080524660a052620000fe620001cb565b60c0525050506001600160a01b0392831660e0525050600680548483166001600160a01b0319918216811790925560078054938516939091169290921790915560405133907f8292fce18fa69edf4db7b94ea2e58241df0ae57f97e0a6c9b29067028bf92d7690600090a36040516001600160a01b0382169033907fa3396fd7f6e0a21b50e5089d2da70d5ac0a3bbbd1f617a93f134b7638998019890600090a35050600b80546001600160a01b0319166001600160a01b039290921691909117905550620005e6915050565b60007f8b73c3c69bb8fe3d512ecc4cf759cc79239f7b179b0ffacaa9a75d522b39400f6000604051620001ff919062000568565b6040805191829003822060208301939093528101919091527fc89efdaa54c0f20c7adf612882df0950f5a951637e0307cdcb4c672f298b8bc660608201524660808201523060a082015260c00160405160208183030381529060405280519060200120905090565b6001600160a01b03811681146200027d57600080fd5b50565b634e487b7160e01b600052604160045260246000fd5b600082601f830112620002a857600080fd5b81516001600160401b0380821115620002c557620002c562000280565b604051601f8301601f19908116603f01168101908282118183101715620002f057620002f062000280565b816040528381526020925086838588010111156200030d57600080fd5b600091505b8382101562000331578582018301518183018401529082019062000312565b83821115620003435760008385830101525b9695505050505050565b600080600080608085870312156200036457600080fd5b8451620003718162000267565b60208601519094506001600160401b03808211156200038f57600080fd5b6200039d8883890162000296565b94506040870151915080821115620003b457600080fd5b50620003c38782880162000296565b9250506060850151620003d68162000267565b939692955090935050565b600060208284031215620003f457600080fd5b815160ff811681146200040657600080fd5b9392505050565b600181811c908216806200042257607f821691505b6020821081036200044357634e487b7160e01b600052602260045260246000fd5b50919050565b601f8211156200049757600081815260208120601f850160051c81016020861015620004725750805b601f850160051c820191505b8181101562000493578281556001016200047e565b5050505b505050565b81516001600160401b03811115620004b857620004b862000280565b620004d081620004c984546200040d565b8462000449565b602080601f831160018114620005085760008415620004ef5750858301515b600019600386901b1c1916600185901b17855562000493565b600085815260208120601f198616915b82811015620005395788860151825594840194600190910190840162000518565b5085821015620005585787850151600019600388901b60f8161c191681555b5050505050600190811b01905550565b600080835462000578816200040d565b60018281168015620005935760018114620005a957620005da565b60ff1984168752821515830287019450620005da565b8760005260208060002060005b85811015620005d15781548a820152908401908201620005b6565b50505082870194505b50929695505050505050565b60805160a05160c05160e051612746620006516000396000818161050101528181610f27015281816111b401528181611296015281816116e2015281816117ac01528181611841015261191901526000610c8c01526000610c57015260006104ad01526127466000f3fe608060405234801561001057600080fd5b50600436106103275760003560e01c80637adfc0b7116101b8578063b460af9411610104578063d505accf116100a2578063dd62ed3e1161007c578063dd62ed3e1461076c578063ebb1699f14610797578063ef8b30f7146107aa578063f366d950146107bd57600080fd5b8063d505accf1461071d578063d811fcf014610730578063d905777e1461074357600080fd5b8063c63d75b6116100de578063c63d75b614610549578063c6e6f592146106e4578063c7ba9c72146106f7578063ce96cb771461070a57600080fd5b8063b460af94146106c3578063ba087652146106c3578063bf7e214f146106d157600080fd5b806395d89b41116101715780639c1176201161014b5780639c11762014610677578063a5cc958d1461068a578063a9059cbb1461069d578063b3d7f6b9146106b057600080fd5b806395d89b411461065e57806399d32fc41461066657806399f2dda61461066e57600080fd5b80637adfc0b7146105d25780637ecebe00146105e5578063849efb71146106055780638da5cb5b14610642578063900cf0cf1461065557806394bf804d1461058457600080fd5b8063313ce56711610277578063402d267d116102305780636e553f651161020a5780636e553f651461058457806370a082311461059757806373203593146105b75780637a9e5e4b146105bf57600080fd5b8063402d267d146105495780634cdad5061461055e5780634fc64bd81461057157600080fd5b8063313ce567146104a857806331ba008c146104e15780633644e515146104f457806338d52e0f146104fc5780633a21cce6146105235780633d770a4f1461053657600080fd5b80630d43e8ad116102e45780631519b29a116102be5780631519b29a1461044f57806318160ddd146104625780631c4ad9151461046b57806323b872dd1461049557600080fd5b80630d43e8ad146103aa578063119435a4146103d557806313af40351461043a57600080fd5b806301e1d1141461032c57806306fdde031461034357806307a2d13a14610358578063095ea7b31461036b5780630a28a4771461038e5780630ab51bac146103a1575b600080fd5b6008545b6040519081526020015b60405180910390f35b61034b6107d0565b60405161033a919061227d565b6103306103663660046122d2565b61085e565b61037e610379366004612300565b61088c565b604051901515815260200161033a565b61033061039c3660046122d2565b6108f8565b61033060085481565b600c546103bd906001600160a01b031681565b6040516001600160a01b03909116815260200161033a565b6104126103e33660046122d2565b600d60205260009081526040902080546001820154600283015460038401546004909401549293919290919085565b604080519586526020860194909452928401919091526060830152608082015260a00161033a565b61044d61044836600461232c565b610919565b005b61044d61045d366004612357565b6109a0565b61033060025481565b61047e6104793660046122d2565b6109f2565b60408051921515835260208301919091520161033a565b61037e6104a3366004612392565b610a61565b6104cf7f000000000000000000000000000000000000000000000000000000000000000081565b60405160ff909116815260200161033a565b6103306104ef36600461232c565b610b41565b610330610c53565b6103bd7f000000000000000000000000000000000000000000000000000000000000000081565b61037e61053136600461232c565b610cae565b6103306105443660046122d2565b610cde565b61033061055736600461232c565b5060001990565b61033061056c3660046122d2565b610d43565b61044d61057f36600461232c565b610d4e565b6103306105923660046123d3565b610dfb565b6103306105a536600461232c565b60036020526000908152604090205481565b61044d610e16565b61044d6105cd36600461232c565b610f9a565b61044d6105e03660046122d2565b611084565b6103306105f336600461232c565b60056020526000908152604090205481565b61041261061336600461232c565b601360205260009081526040902080546001820154600283015460038401546004909401549293919290919085565b6006546103bd906001600160a01b031681565b610330600a5481565b61034b611216565b61044d611223565b61033060095481565b61037e61068536600461232c565b611341565b61044d610698366004612403565b61138d565b61037e6106ab366004612300565b611498565b6103306106be3660046122d2565b6114fe565b610330610592366004612425565b6007546103bd906001600160a01b031681565b6103306106f23660046122d2565b61151e565b6103306107053660046122d2565b61153f565b61033061071836600461232c565b6119ee565b61044d61072b366004612467565b611a10565b600b546103bd906001600160a01b031681565b61033061075136600461232c565b6001600160a01b031660009081526003602052604090205490565b61033061077a3660046124de565b600460209081526000928352604080842090915290825290205481565b61044d6107a53660046122d2565b611c54565b6103306107b83660046122d2565b611def565b61044d6107cb3660046122d2565b611dfa565b600080546107dd9061250c565b80601f01602080910402602001604051908101604052809291908181526020018280546108099061250c565b80156108565780601f1061082b57610100808354040283529160200191610856565b820191906000526020600020905b81548152906001019060200180831161083957829003601f168201915b505050505081565b60025460009080156108835761087e61087660085490565b849083611e72565b610885565b825b9392505050565b3360008181526004602090815260408083206001600160a01b038716808552925280832085905551919290917f8c5be1e5ebec7d5bd14f71427d1e84f3dd0314c0f7b2291e5b200ac8c7c3b925906108e79086815260200190565b60405180910390a350600192915050565b60025460009080156108835761087e8161091160085490565b859190611e91565b61092f336000356001600160e01b031916611ebf565b6109545760405162461bcd60e51b815260040161094b90612546565b60405180910390fd5b600680546001600160a01b0319166001600160a01b03831690811790915560405133907f8292fce18fa69edf4db7b94ea2e58241df0ae57f97e0a6c9b29067028bf92d7690600090a350565b6109b6336000356001600160e01b031916611ebf565b6109d25760405162461bcd60e51b815260040161094b90612546565b6012805460ff191694151594909417909355600f91909155601055600e55565b600a546000908152600d6020526040812060018101546002918201549154839290838115610a2a57610a25838884611e72565b610a2c565b825b9050808411600081610a4757610a428684612582565b610a51565b610a518387612582565b9199919850909650505050505050565b6001600160a01b03831660009081526004602090815260408083203384529091528120546000198114610abd57610a988382612582565b6001600160a01b03861660009081526004602090815260408083203384529091529020555b6001600160a01b03851660009081526003602052604081208054859290610ae5908490612582565b90915550506001600160a01b03808516600081815260036020526040908190208054870190555190918716906000805160206126f183398151915290610b2e9087815260200190565b60405180910390a3506001949350505050565b600080600a5411610b645760405162461bcd60e51b815260040161094b90612599565b610b6d82611341565b610bad5760405162461bcd60e51b81526020600482015260116024820152704e4f5f50454e44494e475f52454445454d60781b604482015260640161094b565b6001600160a01b038216600090815260136020526040812060038101546004909101549091600d81610be0600185612582565b81526020019081526020016000206040518060a0016040529081600082015481526020016001820154815260200160028201548152602001600382015481526020016004820154815250509050610c4a8160600151826080015185611e729092919063ffffffff16565b95945050505050565b60007f00000000000000000000000000000000000000000000000000000000000000004614610c8957610c84611f69565b905090565b507f000000000000000000000000000000000000000000000000000000000000000090565b6001600160a01b03811660009081526013602052604081206001015480158015906108855750600a541192915050565b6000818152600d60205260408120600301541580610d0b57506000828152600d6020526040902060040154155b15610d1857506001919050565b6000828152600d602052604090206004810154600390910154610d3d91600190611e72565b92915050565b6000610d3d8261085e565b610d5781610cae565b15610df8576001600160a01b0381166000908152601360205260409020600190810154610da89190610d8890610cde565b6001600160a01b0384166000908152601360205260409020549190611e72565b6001600160a01b03821660009081526013602052604081206002018054909190610dd39084906125bd565b90915550506001600160a01b0381166000908152601360205260408120818155600101555b50565b600060405163e6a08d5360e01b815260040160405180910390fd5b6000600a5411610e385760405162461bcd60e51b815260040161094b90612599565b610e4133611341565b610e815760405162461bcd60e51b81526020600482015260116024820152704e4f5f50454e44494e475f52454445454d60781b604482015260640161094b565b610e8a33610d4e565b6000610e9533610b41565b60125490915060009060ff16610eac576000610ebd565b601054610ebd908390612710611e91565b90506000610ecb8284612582565b90508160116000828254610edf91906125bd565b909155505033600081815260136020526040808220600381018390556004908101929092555163a9059cbb60e01b815290810191909152602481018290526001600160a01b037f0000000000000000000000000000000000000000000000000000000000000000169063a9059cbb906044016020604051808303816000875af1158015610f70573d6000803e3d6000fd5b505050506040513d601f19601f82011682018060405250810190610f9491906125d5565b50505050565b6006546001600160a01b031633148061102f575060075460405163b700961360e01b81526001600160a01b039091169063b700961390610fee90339030906001600160e01b031960003516906004016125f2565b602060405180830381865afa15801561100b573d6000803e3d6000fd5b505050506040513d601f19601f8201168201806040525081019061102f91906125d5565b61103857600080fd5b600780546001600160a01b0319166001600160a01b03831690811790915560405133907fa3396fd7f6e0a21b50e5089d2da70d5ac0a3bbbd1f617a93f134b7638998019890600090a350565b6000600a54116110a65760405162461bcd60e51b815260040161094b90612599565b600954816008546110b791906125bd565b11156110f75760405162461bcd60e51b815260206004820152600f60248201526e10555357d0d05417d4915050d21151608a1b604482015260640161094b565b60125460009060ff1661110b57600061111c565b600f5461111c908390612710611e91565b9050600061112a8284612582565b9050816011600082825461113e91906125bd565b9091555061114d905033610d4e565b600a5433600090815260136020526040812060018101929092558154839291906111789084906125bd565b9091555050600a546000908152600d6020526040812060010180548392906111a19084906125bd565b909155506111dc90506001600160a01b037f000000000000000000000000000000000000000000000000000000000000000016333086612003565b60405181815233907f35db3d768e685509e031bae369804ca7dc6656af739e079f1d3312cadc7b19d89060200160405180910390a2505050565b600180546107dd9061250c565b6000601154116112655760405162461bcd60e51b815260206004820152600d60248201526c4e4f5f53544f5245445f46454560981b604482015260640161094b565b60006011819055600c5460405163a9059cbb60e01b81526001600160a01b03918216600482015260248101929092527f0000000000000000000000000000000000000000000000000000000000000000169063a9059cbb906044016020604051808303816000875af11580156112df573d6000803e3d6000fd5b505050506040513d601f19601f8201168201806040525081019061130391906125d5565b507f1eda4d37ea66d037b8a85729df9a8ccee8d8fc966097c404f27cc533b7cb83c560115460405161133791815260200190565b60405180910390a1565b6001600160a01b03811660009081526013602052604081206004015415801590610d3d5750600a546001600160a01b038316600090815260136020526040902060040154111592915050565b6113a3336000356001600160e01b031916611ebf565b6113bf5760405162461bcd60e51b815260040161094b90612546565b600a54156113cc57600080fd5b8115611446578181116114215760405162461bcd60e51b815260206004820152601760248201527f696e697469616c206173736574203e2041554d20636170000000000000000000604482015260640161094b565b600882905560006114318361208d565b33600090815260136020526040902060020155505b60098190556001600a8190556008546040517f580ed9f88ae173545786db236829abaa90fab4af4d36274eb8d7c8e06c5b883f9261148c92908252602082015260400190565b60405180910390a15050565b336000908152600360205260408120805483919083906114b9908490612582565b90915550506001600160a01b038316600081815260036020526040908190208054850190555133906000805160206126f1833981519152906108e79086815260200190565b60025460009080156108835761087e61151660085490565b849083611e91565b60025460009080156108835761087e8161153760085490565b859190611e72565b6000611557336000356001600160e01b031916611ebf565b6115735760405162461bcd60e51b815260040161094b90612546565b6000600a54116115955760405162461bcd60e51b815260040161094b90612599565b600a546000908152600d602052604081205460125490919060ff1680156115bb57508184115b6115c65760006115df565b6115df6115d38386612582565b600e5490612710611e91565b905060006115ed8286612582565b9050816011600082825461160191906125bd565b9091555050600a80546000908152600d60205260408082206003018490556002549254825281206004019190915560088290558061163e836109f2565b915091507f83fa67c50a5aa34cb3587f7265408d5af55de90232e78550e11a7c22094aa5b7600a54600854604051611680929190918252602082015260400190565b60405180910390a1600a80549060006116988361261f565b91905055508180156116aa5750600081115b1561177c576116b88161208d565b50600b5460405163a9059cbb60e01b81526001600160a01b039182166004820152602481018390527f00000000000000000000000000000000000000000000000000000000000000009091169063a9059cbb906044016020604051808303816000875af115801561172d573d6000803e3d6000fd5b505050506040513d601f19601f8201168201806040525081019061175191906125d5565b50806008600082825461176491906125bd565b9091555050600954600854111561177c576009546008555b8115801561178a5750600081115b1561198757604051636eb1769f60e11b815233600482015230602482015281907f00000000000000000000000000000000000000000000000000000000000000006001600160a01b03169063dd62ed3e90604401602060405180830381865afa1580156117fb573d6000803e3d6000fd5b505050506040513d601f19601f8201168201806040525081019061181f9190612638565b101561182a57600080fd5b6040516370a0823160e01b815233600482015281907f00000000000000000000000000000000000000000000000000000000000000006001600160a01b0316906370a0823190602401602060405180830381865afa158015611890573d6000803e3d6000fd5b505050506040513d601f19601f820116820180604052508101906118b49190612638565b101561190c5760405162461bcd60e51b815260206004820152602160248201527f6661726d65722061737365742062616c616e636520696e73756666696369656e6044820152601d60fa1b606482015260840161094b565b6119416001600160a01b037f000000000000000000000000000000000000000000000000000000000000000016333084612003565b61196e600d60006001600a546119579190612582565b815260200190815260200160002060020154612126565b5080600860008282546119819190612582565b90915550505b600854600a80546000908152600d602052604090819020839055905490517f580ed9f88ae173545786db236829abaa90fab4af4d36274eb8d7c8e06c5b883f926119d8928252602082015260400190565b60405180910390a1505060085495945050505050565b6001600160a01b038116600090815260036020526040812054610d3d9061085e565b42841015611a605760405162461bcd60e51b815260206004820152601760248201527f5045524d49545f444541444c494e455f45585049524544000000000000000000604482015260640161094b565b60006001611a6c610c53565b6001600160a01b038a811660008181526005602090815260409182902080546001810190915582517f6e71edae12b1b97f4d1f60370fef10105fa2faae0126114a169c64845d6126c98184015280840194909452938d166060840152608083018c905260a083019390935260c08083018b90528151808403909101815260e08301909152805192019190912061190160f01b6101008301526101028201929092526101228101919091526101420160408051601f198184030181528282528051602091820120600084529083018083525260ff871690820152606081018590526080810184905260a0016020604051602081039080840390855afa158015611b78573d6000803e3d6000fd5b5050604051601f1901519150506001600160a01b03811615801590611bae5750876001600160a01b0316816001600160a01b0316145b611beb5760405162461bcd60e51b815260206004820152600e60248201526d24a72b20a624a22fa9a4a3a722a960911b604482015260640161094b565b6001600160a01b0390811660009081526004602090815260408083208a8516808552908352928190208990555188815291928a16917f8c5be1e5ebec7d5bd14f71427d1e84f3dd0314c0f7b2291e5b200ac8c7c3b925910160405180910390a350505050505050565b6000600a5411611c765760405162461bcd60e51b815260040161094b90612599565b60008111611cb75760405162461bcd60e51b815260206004820152600e60248201526d494e56414c49445f53484152455360901b604482015260640161094b565b611cc033611341565b15611cfe5760405162461bcd60e51b815260206004820152600e60248201526d50454e44494e475f52454445454d60901b604482015260640161094b565b611d0733610d4e565b33600090815260136020526040902060030154611d259082906125bd565b336000908152601360205260409020600201541015611d7a5760405162461bcd60e51b81526020600482015260116024820152704e4f545f454e4f5547485f53484152455360781b604482015260640161094b565b3360009081526013602052604081206003018054839290611d9c9084906125bd565b9091555050600a54611daf9060016125bd565b33600090815260136020908152604080832060040193909355600a548252600d90529081206002018054839290611de79084906125bd565b909155505050565b6000610d3d8261151e565b611e10336000356001600160e01b031916611ebf565b611e2c5760405162461bcd60e51b815260040161094b90612546565b8060085410611e6d5760405162461bcd60e51b815260206004820152600d60248201526c20aaa6afa727aa2fa627aba2a960991b604482015260640161094b565b600955565b828202811515841585830485141716611e8a57600080fd5b0492915050565b828202811515841585830485141716611ea957600080fd5b6001826001830304018115150290509392505050565b6007546000906001600160a01b03168015801590611f49575060405163b700961360e01b81526001600160a01b0382169063b700961390611f08908790309088906004016125f2565b602060405180830381865afa158015611f25573d6000803e3d6000fd5b505050506040513d601f19601f82011682018060405250810190611f4991906125d5565b80611f6157506006546001600160a01b038581169116145b949350505050565b60007f8b73c3c69bb8fe3d512ecc4cf759cc79239f7b179b0ffacaa9a75d522b39400f6000604051611f9b9190612651565b6040805191829003822060208301939093528101919091527fc89efdaa54c0f20c7adf612882df0950f5a951637e0307cdcb4c672f298b8bc660608201524660808201523060a082015260c00160405160208183030381529060405280519060200120905090565b60006040516323b872dd60e01b81528460048201528360248201528260448201526020600060648360008a5af13d15601f3d11600160005114161716915050806120865760405162461bcd60e51b81526020600482015260146024820152731514905394d1915497d19493d357d1905253115160621b604482015260640161094b565b5050505050565b60008061209983611def565b9050806000036120d95760405162461bcd60e51b815260206004820152600b60248201526a5a45524f5f53484152455360a81b604482015260640161094b565b6120e330826121c1565b6040805184815260208101839052309133917fdcbc1c05240f31ff3ad067ef1ee35ce4997762752e3a095284754544f4c709d7910160405180910390a392915050565b60008061213283610d43565b9050806000036121725760405162461bcd60e51b815260206004820152600b60248201526a5a45524f5f41535345545360a81b604482015260640161094b565b61217c308461221b565b60408051828152602081018590523091829133917ffbde797d201c681b91056529119e0b02407c7bb96a4a2c75c01fc9667232c8db910160405180910390a492915050565b80600260008282546121d391906125bd565b90915550506001600160a01b0382166000818152600360209081526040808320805486019055518481526000805160206126f183398151915291015b60405180910390a35050565b6001600160a01b03821660009081526003602052604081208054839290612243908490612582565b90915550506002805482900390556040518181526000906001600160a01b038416906000805160206126f18339815191529060200161220f565b600060208083528351808285015260005b818110156122aa5785810183015185820160400152820161228e565b818111156122bc576000604083870101525b50601f01601f1916929092016040019392505050565b6000602082840312156122e457600080fd5b5035919050565b6001600160a01b0381168114610df857600080fd5b6000806040838503121561231357600080fd5b823561231e816122eb565b946020939093013593505050565b60006020828403121561233e57600080fd5b8135610885816122eb565b8015158114610df857600080fd5b6000806000806080858703121561236d57600080fd5b843561237881612349565b966020860135965060408601359560600135945092505050565b6000806000606084860312156123a757600080fd5b83356123b2816122eb565b925060208401356123c2816122eb565b929592945050506040919091013590565b600080604083850312156123e657600080fd5b8235915060208301356123f8816122eb565b809150509250929050565b6000806040838503121561241657600080fd5b50508035926020909101359150565b60008060006060848603121561243a57600080fd5b83359250602084013561244c816122eb565b9150604084013561245c816122eb565b809150509250925092565b600080600080600080600060e0888a03121561248257600080fd5b873561248d816122eb565b9650602088013561249d816122eb565b95506040880135945060608801359350608088013560ff811681146124c157600080fd5b9699959850939692959460a0840135945060c09093013592915050565b600080604083850312156124f157600080fd5b82356124fc816122eb565b915060208301356123f8816122eb565b600181811c9082168061252057607f821691505b60208210810361254057634e487b7160e01b600052602260045260246000fd5b50919050565b6020808252600c908201526b15539055551213d49256915160a21b604082015260600190565b634e487b7160e01b600052601160045260246000fd5b6000828210156125945761259461256c565b500390565b6020808252600a908201526945504f43485f5a45524f60b01b604082015260600190565b600082198211156125d0576125d061256c565b500190565b6000602082840312156125e757600080fd5b815161088581612349565b6001600160a01b0393841681529190921660208201526001600160e01b0319909116604082015260600190565b6000600182016126315761263161256c565b5060010190565b60006020828403121561264a57600080fd5b5051919050565b600080835481600182811c91508083168061266d57607f831692505b6020808410820361268c57634e487b7160e01b86526022600452602486fd5b8180156126a057600181146126b5576126e2565b60ff19861689528415158502890196506126e2565b60008a81526020902060005b868110156126da5781548b8201529085019083016126c1565b505084890196505b50949897505050505050505056feddf252ad1be2c89b69c2b068fc378daa952ba7f163c4a11628f55a4df523b3efa2646970667358221220b628d06b44378373e2bd47ece7e166a3d7fabae32ab8886e743dda0223d1c68264736f6c634300080f0033",
    "linkReferences": {}
  },
  "methodIdentifiers": {
    "DOMAIN_SEPARATOR()": "3644e515",
    "allowance(address,address)": "dd62ed3e",
    "approve(address,uint256)": "095ea7b3",
    "asset()": "38d52e0f",
    "aum()": "0ab51bac",
    "aumCap()": "99f2dda6",
    "authority()": "bf7e214f",
    "balanceOf(address)": "70a08231",
    "claimAsset()": "73203593",
    "claimFee()": "99d32fc4",
    "convertToAssets(uint256)": "07a2d13a",
    "convertToShares(uint256)": "c6e6f592",
    "decimals()": "313ce567",
    "deposit(uint256,address)": "6e553f65",
    "epoch()": "900cf0cf",
    "epochExchangeRate(uint256)": "3d770a4f",
    "farmer()": "d811fcf0",
    "feeDistributor()": "0d43e8ad",
    "maxDeposit(address)": "402d267d",
    "maxMint(address)": "c63d75b6",
    "maxRedeem(address)": "d905777e",
    "maxWithdraw(address)": "ce96cb77",
    "mint(uint256,address)": "94bf804d",
    "name()": "06fdde03",
    "nonces(address)": "7ecebe00",
    "owner()": "8da5cb5b",
    "permit(address,address,uint256,uint256,uint8,bytes32,bytes32)": "d505accf",
    "previewClaim(address)": "31ba008c",
    "previewDeposit(uint256)": "ef8b30f7",
    "previewMint(uint256)": "b3d7f6b9",
    "previewProgress(uint256)": "1c4ad915",
    "previewRedeem(uint256)": "4cdad506",
    "previewWithdraw(uint256)": "0a28a477",
    "progressEpoch(uint256)": "c7ba9c72",
    "redeem(uint256,address,address)": "ba087652",
    "setAuthority(address)": "7a9e5e4b",
    "setOwner(address)": "13af4035",
    "startVault(uint256,uint256)": "a5cc958d",
    "storeAssetForDeposit(uint256)": "7adfc0b7",
    "symbol()": "95d89b41",
    "totalAssets()": "01e1d114",
    "totalSupply()": "18160ddd",
    "transfer(address,uint256)": "a9059cbb",
    "transferFrom(address,address,uint256)": "23b872dd",
    "unlockShareForRedeem(uint256)": "ebb1699f",
    "updateAumCap(uint256)": "f366d950",
    "updateFeeSettings(bool,uint256,uint256,uint256)": "1519b29a",
    "updatePendingUserState(address)": "4fc64bd8",
    "userHasPendingRedeem(address)": "9c117620",
    "userHasPendingUpdate(address)": "3a21cce6",
    "vaultStates(uint256)": "119435a4",
    "vaultUsers(address)": "849efb71",
    "withdraw(uint256,address,address)": "b460af94"
  },
  "id": 12
}