{
  "abi": [
    {
      "inputs": [
        {
          "internalType": "string",
          "name": "_name",
          "type": "string"
        },
        {
          "internalType": "string",
          "name": "_symbol",
          "type": "string"
        },
        {
          "internalType": "address",
          "name": "_farmer",
          "type": "address"
        },
        {
          "internalType": "address",
          "name": "_feeDistributor",
          "type": "address"
        },
        {
          "internalType": "address",
          "name": "_underlying",
          "type": "address"
        },
        {
          "internalType": "address",
          "name": "_vaultConfig",
          "type": "address"
        }
      ],
      "stateMutability": "nonpayable",
      "type": "constructor"
    },
    {
      "inputs": [],
      "name": "AumCapInvalid",
      "type": "error"
    },
    {
      "inputs": [],
      "name": "AumInvalid",
      "type": "error"
    },
    {
      "inputs": [],
      "name": "DepositBlockedByWithdrawal",
      "type": "error"
    },
    {
      "inputs": [],
      "name": "DepositExceedsAumCap",
      "type": "error"
    },
    {
      "inputs": [],
      "name": "DepositFeeExceedsAssets",
      "type": "error"
    },
    {
      "inputs": [],
      "name": "DepositRequirementsNotMet",
      "type": "error"
    },
    {
      "inputs": [],
      "name": "DepositReturnsZeroShares",
      "type": "error"
    },
    {
      "inputs": [],
      "name": "FarmerInsufficientAllowance",
      "type": "error"
    },
    {
      "inputs": [],
      "name": "FarmerInsufficientBalance",
      "type": "error"
    },
    {
      "inputs": [],
      "name": "FeeIsZero",
      "type": "error"
    },
    {
      "inputs": [],
      "name": "FeeSettingsInvalid",
      "type": "error"
    },
    {
      "inputs": [],
      "name": "OnlyAtManagementPhase",
      "type": "error"
    },
    {
      "inputs": [],
      "name": "OnlyOutsideManagementPhase",
      "type": "error"
    },
    {
      "inputs": [],
      "name": "RedeemReturnsZeroAssets",
      "type": "error"
    },
    {
      "inputs": [],
      "name": "UnlockBlockedByWithdrawal",
      "type": "error"
    },
    {
      "inputs": [],
      "name": "UnlockExceedsShareBalance",
      "type": "error"
    },
    {
      "inputs": [],
      "name": "UnlockSharesAmountInvalid",
      "type": "error"
    },
    {
      "inputs": [],
      "name": "VaultAlreadyInitialized",
      "type": "error"
    },
    {
      "inputs": [],
      "name": "VaultIsInitializing",
      "type": "error"
    },
    {
      "inputs": [],
      "name": "WithdrawNotAvailableYet",
      "type": "error"
    },
    {
      "anonymous": false,
      "inputs": [
        {
          "indexed": true,
          "internalType": "address",
          "name": "owner",
          "type": "address"
        },
        {
          "indexed": true,
          "internalType": "address",
          "name": "spender",
          "type": "address"
        },
        {
          "indexed": false,
          "internalType": "uint256",
          "name": "amount",
          "type": "uint256"
        }
      ],
      "name": "Approval",
      "type": "event"
    },
    {
      "anonymous": false,
      "inputs": [
        {
          "indexed": false,
          "internalType": "uint256",
          "name": "aumCap",
          "type": "uint256"
        }
      ],
      "name": "AumCapUpdated",
      "type": "event"
    },
    {
      "anonymous": false,
      "inputs": [
        {
          "indexed": true,
          "internalType": "address",
          "name": "user",
          "type": "address"
        },
        {
          "indexed": true,
          "internalType": "contract Authority",
          "name": "newAuthority",
          "type": "address"
        }
      ],
      "name": "AuthorityUpdated",
      "type": "event"
    },
    {
      "anonymous": false,
      "inputs": [
        {
          "indexed": true,
          "internalType": "address",
          "name": "caller",
          "type": "address"
        },
        {
          "indexed": true,
          "internalType": "address",
          "name": "owner",
          "type": "address"
        },
        {
          "indexed": false,
          "internalType": "uint256",
          "name": "assets",
          "type": "uint256"
        },
        {
          "indexed": false,
          "internalType": "uint256",
          "name": "shares",
          "type": "uint256"
        }
      ],
      "name": "Deposit",
      "type": "event"
    },
    {
      "anonymous": false,
      "inputs": [
        {
          "indexed": false,
          "internalType": "uint256",
          "name": "epoch",
          "type": "uint256"
        },
        {
          "indexed": false,
          "internalType": "uint256",
          "name": "endingAssets",
          "type": "uint256"
        }
      ],
      "name": "EpochEnd",
      "type": "event"
    },
    {
      "anonymous": false,
      "inputs": [
        {
          "indexed": false,
          "internalType": "uint256",
          "name": "epoch",
          "type": "uint256"
        },
        {
          "indexed": false,
          "internalType": "uint256",
          "name": "endingAssets",
          "type": "uint256"
        }
      ],
      "name": "EpochUpdated",
      "type": "event"
    },
    {
      "anonymous": false,
      "inputs": [
        {
          "indexed": false,
          "internalType": "address",
          "name": "feeDistributor",
          "type": "address"
        }
      ],
      "name": "FeeReceiverUpdated",
      "type": "event"
    },
    {
      "anonymous": false,
      "inputs": [
        {
          "indexed": false,
          "internalType": "bool",
          "name": "isFeeEnabled",
          "type": "bool"
        },
        {
          "indexed": false,
          "internalType": "uint256",
          "name": "entryFee",
          "type": "uint256"
        },
        {
          "indexed": false,
          "internalType": "uint256",
          "name": "exitFee",
          "type": "uint256"
        },
        {
          "indexed": false,
          "internalType": "uint256",
          "name": "managementFee",
          "type": "uint256"
        }
      ],
      "name": "FeeUpdated",
      "type": "event"
    },
    {
      "anonymous": false,
      "inputs": [
        {
          "indexed": true,
          "internalType": "address",
          "name": "user",
          "type": "address"
        },
        {
          "indexed": true,
          "internalType": "address",
          "name": "newOwner",
          "type": "address"
        }
      ],
      "name": "OwnerUpdated",
      "type": "event"
    },
    {
      "anonymous": false,
      "inputs": [
        {
          "indexed": false,
          "internalType": "uint256",
          "name": "amount",
          "type": "uint256"
        }
      ],
      "name": "StoredFeeSent",
      "type": "event"
    },
    {
      "anonymous": false,
      "inputs": [
        {
          "indexed": true,
          "internalType": "address",
          "name": "from",
          "type": "address"
        },
        {
          "indexed": true,
          "internalType": "address",
          "name": "to",
          "type": "address"
        },
        {
          "indexed": false,
          "internalType": "uint256",
          "name": "amount",
          "type": "uint256"
        }
      ],
      "name": "Transfer",
      "type": "event"
    },
    {
      "anonymous": false,
      "inputs": [
        {
          "indexed": true,
          "internalType": "address",
          "name": "user",
          "type": "address"
        },
        {
          "indexed": false,
          "internalType": "uint256",
          "name": "amount",
          "type": "uint256"
        }
      ],
      "name": "UserDeposit",
      "type": "event"
    },
    {
      "anonymous": false,
      "inputs": [
        {
          "indexed": true,
          "internalType": "address",
          "name": "user",
          "type": "address"
        },
        {
          "indexed": false,
          "internalType": "uint256",
          "name": "amount",
          "type": "uint256"
        }
      ],
      "name": "UserUnlock",
      "type": "event"
    },
    {
      "anonymous": false,
      "inputs": [
        {
          "indexed": true,
          "internalType": "address",
          "name": "user",
          "type": "address"
        },
        {
          "indexed": false,
          "internalType": "address",
          "name": "withdrawalAddress",
          "type": "address"
        },
        {
          "indexed": false,
          "internalType": "uint256",
          "name": "amount",
          "type": "uint256"
        }
      ],
      "name": "UserWithdraw",
      "type": "event"
    },
    {
      "anonymous": false,
      "inputs": [
        {
          "indexed": true,
          "internalType": "address",
          "name": "caller",
          "type": "address"
        },
        {
          "indexed": true,
          "internalType": "address",
          "name": "receiver",
          "type": "address"
        },
        {
          "indexed": true,
          "internalType": "address",
          "name": "owner",
          "type": "address"
        },
        {
          "indexed": false,
          "internalType": "uint256",
          "name": "assets",
          "type": "uint256"
        },
        {
          "indexed": false,
          "internalType": "uint256",
          "name": "shares",
          "type": "uint256"
        }
      ],
      "name": "Withdraw",
      "type": "event"
    },
    {
      "inputs": [],
      "name": "DOMAIN_SEPARATOR",
      "outputs": [
        {
          "internalType": "bytes32",
          "name": "",
          "type": "bytes32"
        }
      ],
      "stateMutability": "view",
      "type": "function"
    },
    {
      "inputs": [
        {
          "internalType": "address",
          "name": "",
          "type": "address"
        },
        {
          "internalType": "address",
          "name": "",
          "type": "address"
        }
      ],
      "name": "allowance",
      "outputs": [
        {
          "internalType": "uint256",
          "name": "",
          "type": "uint256"
        }
      ],
      "stateMutability": "view",
      "type": "function"
    },
    {
      "inputs": [
        {
          "internalType": "address",
          "name": "spender",
          "type": "address"
        },
        {
          "internalType": "uint256",
          "name": "amount",
          "type": "uint256"
        }
      ],
      "name": "approve",
      "outputs": [
        {
          "internalType": "bool",
          "name": "",
          "type": "bool"
        }
      ],
      "stateMutability": "nonpayable",
      "type": "function"
    },
    {
      "inputs": [],
      "name": "asset",
      "outputs": [
        {
          "internalType": "contract ERC20",
          "name": "",
          "type": "address"
        }
      ],
      "stateMutability": "view",
      "type": "function"
    },
    {
      "inputs": [],
      "name": "aum",
      "outputs": [
        {
          "internalType": "uint256",
          "name": "",
          "type": "uint256"
        }
      ],
      "stateMutability": "view",
      "type": "function"
    },
    {
      "inputs": [],
      "name": "aumCap",
      "outputs": [
        {
          "internalType": "uint256",
          "name": "",
          "type": "uint256"
        }
      ],
      "stateMutability": "view",
      "type": "function"
    },
    {
      "inputs": [],
      "name": "authority",
      "outputs": [
        {
          "internalType": "contract Authority",
          "name": "",
          "type": "address"
        }
      ],
      "stateMutability": "view",
      "type": "function"
    },
    {
      "inputs": [
        {
          "internalType": "address",
          "name": "",
          "type": "address"
        }
      ],
      "name": "balanceOf",
      "outputs": [
        {
          "internalType": "uint256",
          "name": "",
          "type": "uint256"
        }
      ],
      "stateMutability": "view",
      "type": "function"
    },
    {
      "inputs": [
        {
          "internalType": "uint256",
          "name": "shares",
          "type": "uint256"
        }
      ],
      "name": "convertToAssets",
      "outputs": [
        {
          "internalType": "uint256",
          "name": "",
          "type": "uint256"
        }
      ],
      "stateMutability": "view",
      "type": "function"
    },
    {
      "inputs": [
        {
          "internalType": "uint256",
          "name": "assets",
          "type": "uint256"
        }
      ],
      "name": "convertToShares",
      "outputs": [
        {
          "internalType": "uint256",
          "name": "",
          "type": "uint256"
        }
      ],
      "stateMutability": "view",
      "type": "function"
    },
    {
      "inputs": [],
      "name": "decimals",
      "outputs": [
        {
          "internalType": "uint8",
          "name": "",
          "type": "uint8"
        }
      ],
      "stateMutability": "view",
      "type": "function"
    },
    {
      "inputs": [
        {
          "internalType": "uint256",
          "name": "_assets",
          "type": "uint256"
        }
      ],
      "name": "deposit",
      "outputs": [
        {
          "internalType": "uint256",
          "name": "",
          "type": "uint256"
        }
      ],
      "stateMutability": "nonpayable",
      "type": "function"
    },
    {
      "inputs": [
        {
          "internalType": "uint256",
          "name": "_assetsExternalEndBeforeFees",
          "type": "uint256"
        }
      ],
      "name": "editAUM",
      "outputs": [
        {
          "internalType": "uint256",
          "name": "newAUM",
          "type": "uint256"
        }
      ],
      "stateMutability": "nonpayable",
      "type": "function"
    },
    {
      "inputs": [],
      "name": "endManagementPhase",
      "outputs": [],
      "stateMutability": "nonpayable",
      "type": "function"
    },
    {
      "inputs": [],
      "name": "entryFeeBps",
      "outputs": [
        {
          "internalType": "uint256",
          "name": "",
          "type": "uint256"
        }
      ],
      "stateMutability": "view",
      "type": "function"
    },
    {
      "inputs": [],
      "name": "epoch",
      "outputs": [
        {
          "internalType": "uint256",
          "name": "",
          "type": "uint256"
        }
      ],
      "stateMutability": "view",
      "type": "function"
    },
    {
      "inputs": [],
      "name": "exitFeeBps",
      "outputs": [
        {
          "internalType": "uint256",
          "name": "",
          "type": "uint256"
        }
      ],
      "stateMutability": "view",
      "type": "function"
    },
    {
      "inputs": [],
      "name": "farmer",
      "outputs": [
        {
          "internalType": "address",
          "name": "",
          "type": "address"
        }
      ],
      "stateMutability": "view",
      "type": "function"
    },
    {
      "inputs": [],
      "name": "feeDistributor",
      "outputs": [
        {
          "internalType": "address",
          "name": "",
          "type": "address"
        }
      ],
      "stateMutability": "view",
      "type": "function"
    },
    {
      "inputs": [
        {
          "internalType": "uint256",
          "name": "_assets",
          "type": "uint256"
        },
        {
          "internalType": "address",
          "name": "_user",
          "type": "address"
        }
      ],
      "name": "getDepositFee",
      "outputs": [
        {
          "internalType": "uint256",
          "name": "",
          "type": "uint256"
        }
      ],
      "stateMutability": "view",
      "type": "function"
    },
    {
      "inputs": [],
      "name": "getMaxDeposit",
      "outputs": [
        {
          "internalType": "uint256",
          "name": "",
          "type": "uint256"
        }
      ],
      "stateMutability": "view",
      "type": "function"
    },
    {
      "inputs": [
        {
          "internalType": "address",
          "name": "_user",
          "type": "address"
        }
      ],
      "name": "getStoredValue",
      "outputs": [
        {
          "internalType": "uint256",
          "name": "userAssetValue",
          "type": "uint256"
        }
      ],
      "stateMutability": "view",
      "type": "function"
    },
    {
      "inputs": [
        {
          "internalType": "address",
          "name": "_owner",
          "type": "address"
        }
      ],
      "name": "getWithdrawalAmount",
      "outputs": [
        {
          "internalType": "uint256",
          "name": "",
          "type": "uint256"
        },
        {
          "internalType": "uint256",
          "name": "",
          "type": "uint256"
        }
      ],
      "stateMutability": "view",
      "type": "function"
    },
    {
      "inputs": [
        {
          "internalType": "uint256",
          "name": "_assets",
          "type": "uint256"
        },
        {
          "internalType": "address",
          "name": "_user",
          "type": "address"
        }
      ],
      "name": "getWithdrawalFee",
      "outputs": [
        {
          "internalType": "uint256",
          "name": "",
          "type": "uint256"
        }
      ],
      "stateMutability": "view",
      "type": "function"
    },
    {
      "inputs": [],
      "name": "isFeeEnabled",
      "outputs": [
        {
          "internalType": "bool",
          "name": "",
          "type": "bool"
        }
      ],
      "stateMutability": "view",
      "type": "function"
    },
    {
      "inputs": [],
      "name": "isManagementPhase",
      "outputs": [
        {
          "internalType": "bool",
          "name": "",
          "type": "bool"
        }
      ],
      "stateMutability": "view",
      "type": "function"
    },
    {
      "inputs": [],
      "name": "managementBlocksDuration",
      "outputs": [
        {
          "internalType": "uint256",
          "name": "",
          "type": "uint256"
        }
      ],
      "stateMutability": "view",
      "type": "function"
    },
    {
      "inputs": [],
      "name": "managementFeeBps",
      "outputs": [
        {
          "internalType": "uint256",
          "name": "",
          "type": "uint256"
        }
      ],
      "stateMutability": "view",
      "type": "function"
    },
    {
      "inputs": [],
      "name": "name",
      "outputs": [
        {
          "internalType": "string",
          "name": "",
          "type": "string"
        }
      ],
      "stateMutability": "view",
      "type": "function"
    },
    {
      "inputs": [
        {
          "internalType": "address",
          "name": "",
          "type": "address"
        }
      ],
      "name": "nonces",
      "outputs": [
        {
          "internalType": "uint256",
          "name": "",
          "type": "uint256"
        }
      ],
      "stateMutability": "view",
      "type": "function"
    },
    {
      "inputs": [],
      "name": "owner",
      "outputs": [
        {
          "internalType": "address",
          "name": "",
          "type": "address"
        }
      ],
      "stateMutability": "view",
      "type": "function"
    },
    {
      "inputs": [
        {
          "internalType": "address",
          "name": "owner",
          "type": "address"
        },
        {
          "internalType": "address",
          "name": "spender",
          "type": "address"
        },
        {
          "internalType": "uint256",
          "name": "value",
          "type": "uint256"
        },
        {
          "internalType": "uint256",
          "name": "deadline",
          "type": "uint256"
        },
        {
          "internalType": "uint8",
          "name": "v",
          "type": "uint8"
        },
        {
          "internalType": "bytes32",
          "name": "r",
          "type": "bytes32"
        },
        {
          "internalType": "bytes32",
          "name": "s",
          "type": "bytes32"
        }
      ],
      "name": "permit",
      "outputs": [],
      "stateMutability": "nonpayable",
      "type": "function"
    },
    {
      "inputs": [
        {
          "internalType": "uint256",
          "name": "assets",
          "type": "uint256"
        }
      ],
      "name": "previewDeposit",
      "outputs": [
        {
          "internalType": "uint256",
          "name": "",
          "type": "uint256"
        }
      ],
      "stateMutability": "view",
      "type": "function"
    },
    {
      "inputs": [
        {
          "internalType": "uint256",
          "name": "_assets",
          "type": "uint256"
        },
        {
          "internalType": "uint256",
          "name": "_epoch",
          "type": "uint256"
        }
      ],
      "name": "previewDepositEpoch",
      "outputs": [
        {
          "internalType": "uint256",
          "name": "",
          "type": "uint256"
        }
      ],
      "stateMutability": "view",
      "type": "function"
    },
    {
      "inputs": [
        {
          "internalType": "uint256",
          "name": "shares",
          "type": "uint256"
        }
      ],
      "name": "previewMint",
      "outputs": [
        {
          "internalType": "uint256",
          "name": "",
          "type": "uint256"
        }
      ],
      "stateMutability": "view",
      "type": "function"
    },
    {
      "inputs": [
        {
          "internalType": "uint256",
          "name": "_assetsExternalEndBeforeFees",
          "type": "uint256"
        }
      ],
      "name": "previewProgress",
      "outputs": [
        {
          "internalType": "bool",
          "name": "shouldTransferToFarm",
          "type": "bool"
        },
        {
          "internalType": "uint256",
          "name": "totalAssetsToTransfer",
          "type": "uint256"
        },
        {
          "internalType": "bool",
          "name": "shouldDepositDelta",
          "type": "bool"
        },
        {
          "internalType": "uint256",
          "name": "deltaAssets",
          "type": "uint256"
        },
        {
          "internalType": "uint256",
          "name": "managementFee",
          "type": "uint256"
        },
        {
          "internalType": "uint256",
          "name": "assetsExternalEnd",
          "type": "uint256"
        }
      ],
      "stateMutability": "view",
      "type": "function"
    },
    {
      "inputs": [
        {
          "internalType": "uint256",
          "name": "shares",
          "type": "uint256"
        }
      ],
      "name": "previewRedeem",
      "outputs": [
        {
          "internalType": "uint256",
          "name": "",
          "type": "uint256"
        }
      ],
      "stateMutability": "view",
      "type": "function"
    },
    {
      "inputs": [
        {
          "internalType": "uint256",
          "name": "assets",
          "type": "uint256"
        }
      ],
      "name": "previewWithdraw",
      "outputs": [
        {
          "internalType": "uint256",
          "name": "",
          "type": "uint256"
        }
      ],
      "stateMutability": "view",
      "type": "function"
    },
    {
      "inputs": [
        {
          "internalType": "uint256",
          "name": "_assetsExternalEndBeforeFees",
          "type": "uint256"
        }
      ],
      "name": "progressEpoch",
      "outputs": [
        {
          "internalType": "uint256",
          "name": "",
          "type": "uint256"
        }
      ],
      "stateMutability": "nonpayable",
      "type": "function"
    },
    {
      "inputs": [],
      "name": "sendFee",
      "outputs": [],
      "stateMutability": "nonpayable",
      "type": "function"
    },
    {
      "inputs": [
        {
          "internalType": "contract Authority",
          "name": "newAuthority",
          "type": "address"
        }
      ],
      "name": "setAuthority",
      "outputs": [],
      "stateMutability": "nonpayable",
      "type": "function"
    },
    {
      "inputs": [
        {
          "internalType": "address",
          "name": "_feeDistributor",
          "type": "address"
        }
      ],
      "name": "setFeeDistributor",
      "outputs": [],
      "stateMutability": "nonpayable",
      "type": "function"
    },
    {
      "inputs": [
        {
          "internalType": "uint256",
          "name": "_managementFeeBps",
          "type": "uint256"
        },
        {
          "internalType": "uint256",
          "name": "_entryFeeBps",
          "type": "uint256"
        },
        {
          "internalType": "uint256",
          "name": "_exitFeeBps",
          "type": "uint256"
        }
      ],
      "name": "setFees",
      "outputs": [],
      "stateMutability": "nonpayable",
      "type": "function"
    },
    {
      "inputs": [
        {
          "internalType": "bool",
          "name": "_isFeeEnabled",
          "type": "bool"
        }
      ],
      "name": "setIsFeeEnabled",
      "outputs": [],
      "stateMutability": "nonpayable",
      "type": "function"
    },
    {
      "inputs": [
        {
          "internalType": "address",
          "name": "newOwner",
          "type": "address"
        }
      ],
      "name": "setOwner",
      "outputs": [],
      "stateMutability": "nonpayable",
      "type": "function"
    },
    {
      "inputs": [
        {
          "internalType": "address",
          "name": "_vaultConfigAddress",
          "type": "address"
        }
      ],
      "name": "setVaultConfigAddress",
      "outputs": [],
      "stateMutability": "nonpayable",
      "type": "function"
    },
    {
      "inputs": [
        {
          "internalType": "uint256",
          "name": "_initialExternalAsset",
          "type": "uint256"
        },
        {
          "internalType": "uint256",
          "name": "_aumCap",
          "type": "uint256"
        }
      ],
      "name": "startVault",
      "outputs": [],
      "stateMutability": "nonpayable",
      "type": "function"
    },
    {
      "inputs": [],
      "name": "storedFee",
      "outputs": [
        {
          "internalType": "uint256",
          "name": "",
          "type": "uint256"
        }
      ],
      "stateMutability": "view",
      "type": "function"
    },
    {
      "inputs": [],
      "name": "symbol",
      "outputs": [
        {
          "internalType": "string",
          "name": "",
          "type": "string"
        }
      ],
      "stateMutability": "view",
      "type": "function"
    },
    {
      "inputs": [],
      "name": "totalAssets",
      "outputs": [
        {
          "internalType": "uint256",
          "name": "",
          "type": "uint256"
        }
      ],
      "stateMutability": "view",
      "type": "function"
    },
    {
      "inputs": [],
      "name": "totalSupply",
      "outputs": [
        {
          "internalType": "uint256",
          "name": "",
          "type": "uint256"
        }
      ],
      "stateMutability": "view",
      "type": "function"
    },
    {
      "inputs": [
        {
          "internalType": "address",
          "name": "to",
          "type": "address"
        },
        {
          "internalType": "uint256",
          "name": "amount",
          "type": "uint256"
        }
      ],
      "name": "transfer",
      "outputs": [
        {
          "internalType": "bool",
          "name": "",
          "type": "bool"
        }
      ],
      "stateMutability": "nonpayable",
      "type": "function"
    },
    {
      "inputs": [
        {
          "internalType": "address",
          "name": "from",
          "type": "address"
        },
        {
          "internalType": "address",
          "name": "to",
          "type": "address"
        },
        {
          "internalType": "uint256",
          "name": "amount",
          "type": "uint256"
        }
      ],
      "name": "transferFrom",
      "outputs": [
        {
          "internalType": "bool",
          "name": "",
          "type": "bool"
        }
      ],
      "stateMutability": "nonpayable",
      "type": "function"
    },
    {
      "inputs": [
        {
          "internalType": "uint256",
          "name": "_shares",
          "type": "uint256"
        }
      ],
      "name": "unlock",
      "outputs": [
        {
          "internalType": "uint256",
          "name": "",
          "type": "uint256"
        }
      ],
      "stateMutability": "nonpayable",
      "type": "function"
    },
    {
      "inputs": [
        {
          "internalType": "uint256",
          "name": "_aumCap",
          "type": "uint256"
        }
      ],
      "name": "updateAumCap",
      "outputs": [],
      "stateMutability": "nonpayable",
      "type": "function"
    },
    {
      "inputs": [
        {
          "internalType": "address",
          "name": "_user",
          "type": "address"
        }
      ],
      "name": "updatePendingDepositState",
      "outputs": [],
      "stateMutability": "nonpayable",
      "type": "function"
    },
    {
      "inputs": [
        {
          "internalType": "address",
          "name": "_user",
          "type": "address"
        }
      ],
      "name": "userHasPendingDeposit",
      "outputs": [
        {
          "internalType": "bool",
          "name": "",
          "type": "bool"
        }
      ],
      "stateMutability": "view",
      "type": "function"
    },
    {
      "inputs": [
        {
          "internalType": "address",
          "name": "_user",
          "type": "address"
        }
      ],
      "name": "userHasPendingWithdrawal",
      "outputs": [
        {
          "internalType": "bool",
          "name": "",
          "type": "bool"
        }
      ],
      "stateMutability": "view",
      "type": "function"
    },
    {
      "inputs": [],
      "name": "vaultConfigAddress",
      "outputs": [
        {
          "internalType": "address",
          "name": "",
          "type": "address"
        }
      ],
      "stateMutability": "view",
      "type": "function"
    },
    {
      "inputs": [
        {
          "internalType": "uint256",
          "name": "",
          "type": "uint256"
        }
      ],
      "name": "vaultStates",
      "outputs": [
        {
          "internalType": "uint256",
          "name": "assetsExternalStart",
          "type": "uint256"
        },
        {
          "internalType": "uint256",
          "name": "assetsToDeposit",
          "type": "uint256"
        },
        {
          "internalType": "uint256",
          "name": "sharesToRedeem",
          "type": "uint256"
        },
        {
          "internalType": "uint256",
          "name": "assetsExternalEnd",
          "type": "uint256"
        },
        {
          "internalType": "uint256",
          "name": "managementFee",
          "type": "uint256"
        },
        {
          "internalType": "uint256",
          "name": "totalSupply",
          "type": "uint256"
        },
        {
          "internalType": "uint256",
          "name": "lastManagementBlock",
          "type": "uint256"
        }
      ],
      "stateMutability": "view",
      "type": "function"
    },
    {
      "inputs": [
        {
          "internalType": "address",
          "name": "",
          "type": "address"
        }
      ],
      "name": "vaultUsers",
      "outputs": [
        {
          "internalType": "uint256",
          "name": "assetsDeposited",
          "type": "uint256"
        },
        {
          "internalType": "uint256",
          "name": "epochLastDeposited",
          "type": "uint256"
        },
        {
          "internalType": "uint256",
          "name": "vaultShares",
          "type": "uint256"
        },
        {
          "internalType": "uint256",
          "name": "sharesToRedeem",
          "type": "uint256"
        },
        {
          "internalType": "uint256",
          "name": "epochToRedeem",
          "type": "uint256"
        }
      ],
      "stateMutability": "view",
      "type": "function"
    },
    {
      "inputs": [],
      "name": "withdraw",
      "outputs": [
        {
          "internalType": "uint256",
          "name": "",
          "type": "uint256"
        }
      ],
      "stateMutability": "nonpayable",
      "type": "function"
    }
  ],
  "bytecode": {
    "object": "0x610120604052600060088190556009819055600a55611770600b55600c805460ff60a01b191690556107d0600e556064600f8190556010553480156200004457600080fd5b506040516200304838038062003048833981016040819052620000679162000370565b8360008388888181846001600160a01b031663313ce5676040518163ffffffff1660e01b8152600401602060405180830381865afa158015620000ae573d6000803e3d6000fd5b505050506040513d601f19601f82011682018060405250810190620000d4919062000423565b6000620000e28482620004de565b506001620000f18382620004de565b5060ff81166080524660a05262000107620001ea565b60c0525050506001600160a01b0392831660e0525050600680548483166001600160a01b0319918216811790925560078054938516939091169290921790915560405133907f8292fce18fa69edf4db7b94ea2e58241df0ae57f97e0a6c9b29067028bf92d7690600090a36040516001600160a01b0382169033907fa3396fd7f6e0a21b50e5089d2da70d5ac0a3bbbd1f617a93f134b7638998019890600090a350506001600160a01b0393841661010052600d80549385166001600160a01b0319948516179055600c8054919094169216919091179091555062000628915050565b60007f8b73c3c69bb8fe3d512ecc4cf759cc79239f7b179b0ffacaa9a75d522b39400f60006040516200021e9190620005aa565b6040805191829003822060208301939093528101919091527fc89efdaa54c0f20c7adf612882df0950f5a951637e0307cdcb4c672f298b8bc660608201524660808201523060a082015260c00160405160208183030381529060405280519060200120905090565b634e487b7160e01b600052604160045260246000fd5b600082601f830112620002ae57600080fd5b81516001600160401b0380821115620002cb57620002cb62000286565b604051601f8301601f19908116603f01168101908282118183101715620002f657620002f662000286565b816040528381526020925086838588010111156200031357600080fd5b600091505b8382101562000337578582018301518183018401529082019062000318565b83821115620003495760008385830101525b9695505050505050565b80516001600160a01b03811681146200036b57600080fd5b919050565b60008060008060008060c087890312156200038a57600080fd5b86516001600160401b0380821115620003a257600080fd5b620003b08a838b016200029c565b97506020890151915080821115620003c757600080fd5b50620003d689828a016200029c565b955050620003e76040880162000353565b9350620003f76060880162000353565b9250620004076080880162000353565b91506200041760a0880162000353565b90509295509295509295565b6000602082840312156200043657600080fd5b815160ff811681146200044857600080fd5b9392505050565b600181811c908216806200046457607f821691505b6020821081036200048557634e487b7160e01b600052602260045260246000fd5b50919050565b601f821115620004d957600081815260208120601f850160051c81016020861015620004b45750805b601f850160051c820191505b81811015620004d557828155600101620004c0565b5050505b505050565b81516001600160401b03811115620004fa57620004fa62000286565b62000512816200050b84546200044f565b846200048b565b602080601f8311600181146200054a5760008415620005315750858301515b600019600386901b1c1916600185901b178555620004d5565b600085815260208120601f198616915b828110156200057b578886015182559484019460019091019084016200055a565b50858210156200059a5787850151600019600388901b60f8161c191681555b5050505050600190811b01905550565b6000808354620005ba816200044f565b60018281168015620005d55760018114620005eb576200061c565b60ff19841687528215158302870194506200061c565b8760005260208060002060005b85811015620006135781548a820152908401908201620005f8565b50505082870194505b50929695505050505050565b60805160a05160c05160e051610100516129b162000697600039600081816108cd015261220f0152600081816105fd0152818161153c0152818161208801528181612131015281816121d0015261224101526000610d9601526000610d61015260006105a001526129b16000f3fe608060405234801561001057600080fd5b50600436106103ba5760003560e01c80637a9e5e4b116101f4578063bf7e214f1161011a578063d505accf116100ad578063ef8b30f71161007c578063ef8b30f71461092d578063f366d95014610940578063f70881a314610953578063fa37a9ba1461096657600080fd5b8063d505accf146108b5578063d811fcf0146108c8578063dc4a5bff146108ef578063dd62ed3e1461090257600080fd5b8063ccfc2e8d116100e9578063ccfc2e8d14610873578063cec10c1114610886578063d49e271d14610899578063d4d4be2f146108a257600080fd5b8063bf7e214f14610827578063c1dbbc311461083a578063c6e6f5921461084d578063c7ba9c721461086057600080fd5b806395d89b4111610192578063a9059cbb11610161578063a9059cbb146107f9578063ae39279f1461080c578063b3d7f6b914610814578063b6b55f251461068757600080fd5b806395d89b41146107cd57806399f2dda6146107d5578063a4dbc6a8146107de578063a5cc958d146107e657600080fd5b8063849efb71116101ce578063849efb71146107395780638da5cb5b1461079e578063900cf0cf146107b1578063907e98cd146107ba57600080fd5b80637a9e5e4b146106e95780637ecebe00146106fc578063808dd5eb1461071c57600080fd5b8063313ce567116102e4578063578334ee1161027757806361bc2e331161024657806361bc2e331461069a5780636ea97367146106ad57806370a08231146106c057806371634e32146106e057600080fd5b8063578334ee1461066257806357b17a521461066b5780635a157a25146106745780636198e3391461068757600080fd5b806338d52e0f116102b357806338d52e0f146105f85780633ccfd60b1461061f5780634cdad5061461062757806356582bf91461063a57600080fd5b8063313ce5671461059b578063344de0ac146105d45780633644e515146105e75780633813c35a146105ef57600080fd5b80630b38bed91161035c57806313af40351161032b57806313af40351461051957806318160ddd1461052c5780631c4ad9151461053557806323b872dd1461058857600080fd5b80630b38bed9146104505780630d43e8ad1461045a5780630e66dc6914610485578063119435a41461049957600080fd5b80630807ac57116103985780630807ac57146103fe578063095ea7b3146104115780630a28a477146104345780630ab51bac1461044757600080fd5b806301e1d114146103bf57806306fdde03146103d657806307a2d13a146103eb575b600080fd5b6008545b6040519081526020015b60405180910390f35b6103de610979565b6040516103cd9190612540565b6103c36103f9366004612595565b610a07565b6103c361040c3660046125ae565b610a35565b61042461041f3660046125e5565b610a94565b60405190151581526020016103cd565b6103c3610442366004612595565b610b00565b6103c360085481565b610458610b21565b005b600d5461046d906001600160a01b031681565b6040516001600160a01b0390911681526020016103cd565b600c5461042490600160a01b900460ff1681565b6104e46104a7366004612595565b6012602052600090815260409020805460018201546002830154600384015460048501546005860154600690960154949593949293919290919087565b604080519788526020880196909652948601939093526060850191909152608084015260a083015260c082015260e0016103cd565b610458610527366004612611565b610bab565b6103c360025481565b610553610543366004612595565b6000808080808091939550919395565b6040805196151587526020870195909552921515938501939093526060840152608083019190915260a082015260c0016103cd565b61042461059636600461262e565b610c29565b6105c27f000000000000000000000000000000000000000000000000000000000000000081565b60405160ff90911681526020016103cd565b6104586105e2366004612611565b610d09565b6103c3610d5d565b6103c3600e5481565b61046d7f000000000000000000000000000000000000000000000000000000000000000081565b6103c3610db8565b6103c3610635366004612595565b610e18565b61064d610648366004612611565b610e23565b604080519283526020830191909152016103cd565b6103c3600f5481565b6103c360105481565b6103c3610682366004612595565b610ed4565b6103c3610695366004612595565b61103b565b600c5461046d906001600160a01b031681565b6104586106bb366004612611565b61109d565b6103c36106ce366004612611565b60036020526000908152604090205481565b6103c360115481565b6104586106f7366004612611565b61112c565b6103c361070a366004612611565b60056020526000908152604090205481565b600a54600090815260126020526040902060060154431115610424565b610776610747366004612611565b601360205260009081526040902080546001820154600283015460038401546004909401549293919290919085565b604080519586526020860194909452928401919091526060830152608082015260a0016103cd565b60065461046d906001600160a01b031681565b6103c3600a5481565b6103c36107c8366004612611565b611216565b6103de6112c7565b6103c360095481565b6103c36112d4565b6104586107f43660046125ae565b6112eb565b6104246108073660046125e5565b61144d565b6104586114b3565b6103c3610822366004612595565b6115ea565b60075461046d906001600160a01b031681565b6103c361084836600461266f565b61160a565b6103c361085b366004612595565b611740565b6103c361086e366004612595565b611761565b610458610881366004612611565b61194e565b61045861089436600461269f565b6119c9565b6103c3600b5481565b6104246108b0366004612611565b611a44565b6104586108c33660046126cb565b611a90565b61046d7f000000000000000000000000000000000000000000000000000000000000000081565b6104586108fd366004612750565b611cd4565b6103c361091036600461276d565b600460209081526000928352604080842090915290825290205481565b6103c361093b366004612595565b611d57565b61045861094e366004612595565b611d62565b610424610961366004612611565b611dc3565b6103c361097436600461266f565b611df3565b600080546109869061279b565b80601f01602080910402602001604051908101604052809291908181526020018280546109b29061279b565b80156109ff5780601f106109d4576101008083540402835291602001916109ff565b820191906000526020600020905b8154815290600101906020018083116109e257829003601f168201915b505050505081565b6002546000908015610a2c57610a27610a1f60085490565b849083611edb565b610a2e565b825b9392505050565b6000818152601260205260408120600501541580610a5f5750600082815260126020526040902054155b15610a6b575081610a8e565b600082815260126020526040902060058101549054610a8b918591611edb565b90505b92915050565b3360008181526004602090815260408083206001600160a01b038716808552925280832085905551919290917f8c5be1e5ebec7d5bd14f71427d1e84f3dd0314c0f7b2291e5b200ac8c7c3b92590610aef9086815260200190565b60405180910390a350600192915050565b6002546000908015610a2c57610a2781610b1960085490565b859190611efa565b610b37336000356001600160e01b031916611f28565b610b5c5760405162461bcd60e51b8152600401610b53906127d5565b60405180910390fd5b600a54600090815260126020526040902060060154431115610b91576040516354a9d44560e01b815260040160405180910390fd5b600a54600090815260126020526040902043600690910155565b610bc1336000356001600160e01b031916611f28565b610bdd5760405162461bcd60e51b8152600401610b53906127d5565b600680546001600160a01b0319166001600160a01b03831690811790915560405133907f8292fce18fa69edf4db7b94ea2e58241df0ae57f97e0a6c9b29067028bf92d7690600090a350565b6001600160a01b03831660009081526004602090815260408083203384529091528120546000198114610c8557610c608382612811565b6001600160a01b03861660009081526004602090815260408083203384529091529020555b6001600160a01b03851660009081526003602052604081208054859290610cad908490612811565b90915550506001600160a01b038085166000818152600360205260409081902080548701905551909187169060008051602061295c83398151915290610cf69087815260200190565b60405180910390a3506001949350505050565b610d1f336000356001600160e01b031916611f28565b610d3b5760405162461bcd60e51b8152600401610b53906127d5565b600c80546001600160a01b0319166001600160a01b0392909216919091179055565b60007f00000000000000000000000000000000000000000000000000000000000000004614610d9357610d8e611fd1565b905090565b507f000000000000000000000000000000000000000000000000000000000000000090565b60006001600a541015610dde576040516324875a2960e11b815260040160405180910390fd5b600a546000908152601260205260409020600601544311610e12576040516335e7b1ad60e01b815260040160405180910390fd5b50600090565b6000610a8e82610a07565b600080610e2f83611a44565b610e3e57506000928392509050565b6001600160a01b03831660009081526013602090815260408083206004810154600390910154818552601290935292208054600590910154811580610e81575080155b15610e955750600096879650945050505050565b60008481526012602052604081208054600590910154610eb6918691611edb565b90506000610ec4828a61160a565b9199919850909650505050505050565b600a54600090815260126020526040812060060154431115610f09576040516354a9d44560e01b815260040160405180910390fd5b610f1f336000356001600160e01b031916611f28565b610f3b5760405162461bcd60e51b8152600401610b53906127d5565b60006001600a54610f4c9190612811565b60008181526012602052604090206003810154600482015460059092015492935091610f788284612828565b8603610f88575090949350505050565b600080610f986105438587612828565b50505050915091506000811115610fc8578115610fbd57610fb88161206b565b610fc8565b610fc6816121f8565b505b826002541115610fe957610fe93084600254610fe49190612811565b6122b0565b82600254101561100a5761100a30600254856110059190612811565b61231a565b836011600082825461101c9190612811565b9091555050600a86905561102f88611761565b98975050505050505050565b60006001600a541015611061576040516324875a2960e11b815260040160405180910390fd5b600a546000908152601260205260409020600601544311611095576040516335e7b1ad60e01b815260040160405180910390fd5b506000919050565b6110a681611dc3565b15611129576001600160a01b038116600090815260136020526040902080546001918201546110d99261040c9190612828565b6001600160a01b03821660009081526013602052604081206002018054909190611104908490612828565b90915550506001600160a01b0381166000908152601360205260408120818155600101555b50565b6006546001600160a01b03163314806111c1575060075460405163b700961360e01b81526001600160a01b039091169063b70096139061118090339030906001600160e01b03196000351690600401612840565b602060405180830381865afa15801561119d573d6000803e3d6000fd5b505050506040513d601f19601f820116820180604052508101906111c1919061286d565b6111ca57600080fd5b600780546001600160a01b0319166001600160a01b03831690811790915560405133907fa3396fd7f6e0a21b50e5089d2da70d5ac0a3bbbd1f617a93f134b7638998019890600090a350565b6001600160a01b0381166000908152601360209081526040808320815160a0810183528154815260018201549381019390935260028101549183018290526003810154606084015260040154608083015261127084611dc3565b1561129d578151602083015161128c919061040c906001612828565b6112969082612828565b90506112ac565b81516112a99084612828565b92505b6112b581610a07565b6112bf9084612828565b949350505050565b600180546109869061279b565b60006112de61236c565b600954610d8e9190612811565b600a541561130c5760405163abd5ec5d60e01b815260040160405180910390fd5b611322336000356001600160e01b031916611f28565b61133e5760405162461bcd60e51b8152600401610b53906127d5565b8181101561135f5760405163d6d43aa560e01b815260040160405180910390fd5b81156113855760006113708361238e565b33600090815260136020526040902060020155505b60098190556001600a819055600854600091825260126020527f71a67924699a20698523213e55fe499d539379d7769cd5567e2c45d583f815a38190556002547f71a67924699a20698523213e55fe499d539379d7769cd5567e2c45d583f815a855437f71a67924699a20698523213e55fe499d539379d7769cd5567e2c45d583f815a9556040517f83fa67c50a5aa34cb3587f7265408d5af55de90232e78550e11a7c22094aa5b79261144192908252602082015260400190565b60405180910390a15050565b3360009081526003602052604081208054839190839061146e908490612811565b90915550506001600160a01b0383166000818152600360205260409081902080548501905551339060008051602061295c83398151915290610aef9086815260200190565b600a5460009081526012602052604090206006015443116114e7576040516335e7b1ad60e01b815260040160405180910390fd5b60115460000361150a576040516315a6ad9b60e11b815260040160405180910390fd5b601180546000909155600d5460405163a9059cbb60e01b81526001600160a01b039182166004820152602481018390527f00000000000000000000000000000000000000000000000000000000000000009091169063a9059cbb906044016020604051808303816000875af1158015611587573d6000803e3d6000fd5b505050506040513d601f19601f820116820180604052508101906115ab919061286d565b507fb4d8a8406f3bc5c93ba2220e6aaf8109c1a327ac49dae93247607983598fc59f6011546040516115df91815260200190565b60405180910390a150565b6002546000908015610a2c57610a2761160260085490565b849083611efa565b600c546000906001600160a01b0316158015906116905750600c546040516350f0e8fd60e11b81526001600160a01b0384811660048301529091169063a1e1d1fa90602401602060405180830381865afa15801561166c573d6000803e3d6000fd5b505050506040513d601f19601f82011682018060405250810190611690919061286d565b1561171757600c54604051633c20ee6360e01b81526001600160a01b038481166004830152611710921690633c20ee63906024015b602060405180830381865afa1580156116e2573d6000803e3d6000fd5b505050506040513d601f19601f82011682018060405250810190611706919061288a565b8490612710611efa565b9050610a8e565b600c54600160a01b900460ff1661172f576000611710565b601054611710908490612710611efa565b6002546000908015610a2c57610a278161175960085490565b859190611edb565b6000611779336000356001600160e01b031916611f28565b6117955760405162461bcd60e51b8152600401610b53906127d5565b6001600a5410156117b9576040516324875a2960e11b815260040160405180910390fd5b601180546000918291829182918291829182919082906117da908290612828565b9091555050600a8054600090815260126020908152604080832060040186905560088590558354835291829020600301849055915481519081529182018390527f83fa67c50a5aa34cb3587f7265408d5af55de90232e78550e11a7c22094aa5b7910160405180910390a1600a8054906000611855836128a3565b9091555050841561187e5785156118755761186f856121f8565b5061187e565b61187e8561206b565b82156118ac578315611899576118938361238e565b506118ac565b6118aa6118a584611740565b612421565b505b60095460085411156118f45760085460098190556040519081527f08a867523cfba7070a600e4f91a0f4794f120cf8c7433ae70c15616acb8945bb9060200160405180910390a15b600854600a805460009081526012602052604080822093909355600254915481529190912060050155600b5461192a9043612828565b600a5460009081526012602052604090206006015550506008549695505050505050565b611964336000356001600160e01b031916611f28565b6119805760405162461bcd60e51b8152600401610b53906127d5565b6001600160a01b0381166119a75760405163e72c6ebd60e01b815260040160405180910390fd5b600d80546001600160a01b0319166001600160a01b0392909216919091179055565b6119df336000356001600160e01b031916611f28565b6119fb5760405162461bcd60e51b8152600401610b53906127d5565b612710831180611a0c575061271082115b80611a18575061271081115b15611a365760405163e72c6ebd60e01b815260040160405180910390fd5b600e92909255600f55601055565b6001600160a01b03811660009081526013602052604081206004015415801590610a8e5750600a546001600160a01b038316600090815260136020526040902060040154111592915050565b42841015611ae05760405162461bcd60e51b815260206004820152601760248201527f5045524d49545f444541444c494e455f455850495245440000000000000000006044820152606401610b53565b60006001611aec610d5d565b6001600160a01b038a811660008181526005602090815260409182902080546001810190915582517f6e71edae12b1b97f4d1f60370fef10105fa2faae0126114a169c64845d6126c98184015280840194909452938d166060840152608083018c905260a083019390935260c08083018b90528151808403909101815260e08301909152805192019190912061190160f01b6101008301526101028201929092526101228101919091526101420160408051601f198184030181528282528051602091820120600084529083018083525260ff871690820152606081018590526080810184905260a0016020604051602081039080840390855afa158015611bf8573d6000803e3d6000fd5b5050604051601f1901519150506001600160a01b03811615801590611c2e5750876001600160a01b0316816001600160a01b0316145b611c6b5760405162461bcd60e51b815260206004820152600e60248201526d24a72b20a624a22fa9a4a3a722a960911b6044820152606401610b53565b6001600160a01b0390811660009081526004602090815260408083208a8516808552908352928190208990555188815291928a16917f8c5be1e5ebec7d5bd14f71427d1e84f3dd0314c0f7b2291e5b200ac8c7c3b925910160405180910390a350505050505050565b611cea336000356001600160e01b031916611f28565b611d065760405162461bcd60e51b8152600401610b53906127d5565b801515600c60149054906101000a900460ff16151503611d395760405163e72c6ebd60e01b815260040160405180910390fd5b600c8054911515600160a01b0260ff60a01b19909216919091179055565b6000610a8e82611740565b611d78336000356001600160e01b031916611f28565b611d945760405162461bcd60e51b8152600401610b53906127d5565b611d9c61236c565b6009541015611dbe5760405163d6d43aa560e01b815260040160405180910390fd5b600955565b6001600160a01b0381166000908152601360205260408120600101548015801590610a2e5750600a541192915050565b600c546000906001600160a01b031615801590611e795750600c546040516350f0e8fd60e11b81526001600160a01b0384811660048301529091169063a1e1d1fa90602401602060405180830381865afa158015611e55573d6000803e3d6000fd5b505050506040513d601f19601f82011682018060405250810190611e79919061286d565b15611eb257600c5460405163490a847b60e11b81526001600160a01b03848116600483015261171092169063921508f6906024016116c5565b600c54600160a01b900460ff16611eca576000611710565b600f54611710908490612710611efa565b828202811515841585830485141716611ef357600080fd5b0492915050565b828202811515841585830485141716611f1257600080fd5b6001826001830304018115150290509392505050565b6007546000906001600160a01b03168015801590611fb2575060405163b700961360e01b81526001600160a01b0382169063b700961390611f7190879030908890600401612840565b602060405180830381865afa158015611f8e573d6000803e3d6000fd5b505050506040513d601f19601f82011682018060405250810190611fb2919061286d565b806112bf57506006546001600160a01b03858116911614949350505050565b60007f8b73c3c69bb8fe3d512ecc4cf759cc79239f7b179b0ffacaa9a75d522b39400f600060405161200391906128bc565b6040805191829003822060208301939093528101919091527fc89efdaa54c0f20c7adf612882df0950f5a951637e0307cdcb4c672f298b8bc660608201524660808201523060a082015260c00160405160208183030381529060405280519060200120905090565b604051636eb1769f60e11b815233600482015230602482015281907f00000000000000000000000000000000000000000000000000000000000000006001600160a01b03169063dd62ed3e90604401602060405180830381865afa1580156120d7573d6000803e3d6000fd5b505050506040513d601f19601f820116820180604052508101906120fb919061288a565b101561211a576040516376dbb4e960e01b815260040160405180910390fd5b6040516370a0823160e01b815233600482015281907f00000000000000000000000000000000000000000000000000000000000000006001600160a01b0316906370a0823190602401602060405180830381865afa158015612180573d6000803e3d6000fd5b505050506040513d601f19601f820116820180604052508101906121a4919061288a565b10156121c35760405163b2a196b160e01b815260040160405180910390fd5b6111296001600160a01b037f0000000000000000000000000000000000000000000000000000000000000000163330846124b6565b60405163a9059cbb60e01b81526001600160a01b037f000000000000000000000000000000000000000000000000000000000000000081166004830152602482018390526000917f00000000000000000000000000000000000000000000000000000000000000009091169063a9059cbb906044016020604051808303816000875af115801561228c573d6000803e3d6000fd5b505050506040513d601f19601f82011682018060405250810190610a8e919061286d565b6001600160a01b038216600090815260036020526040812080548392906122d8908490612811565b90915550506002805482900390556040518181526000906001600160a01b0384169060008051602061295c833981519152906020015b60405180910390a35050565b806002600082825461232c9190612828565b90915550506001600160a01b03821660008181526003602090815260408083208054860190555184815260008051602061295c833981519152910161230e565b600a54600090815260126020526040812060010154600854610d8e9190612828565b60008061239a83611d57565b9050806000036123bd57604051637a740e7b60e01b815260040160405180910390fd5b6123c7308261231a565b82600860008282546123d99190612828565b90915550506040805184815260208101839052309133917fdcbc1c05240f31ff3ad067ef1ee35ce4997762752e3a095284754544f4c709d7910160405180910390a392915050565b60008061242d83610e18565b905080600003612450576040516324a0f01560e21b815260040160405180910390fd5b61245a30846122b0565b806008600082825461246c9190612811565b909155505060408051828152602081018590523091829133917ffbde797d201c681b91056529119e0b02407c7bb96a4a2c75c01fc9667232c8db910160405180910390a492915050565b60006040516323b872dd60e01b81528460048201528360248201528260448201526020600060648360008a5af13d15601f3d11600160005114161716915050806125395760405162461bcd60e51b81526020600482015260146024820152731514905394d1915497d19493d357d1905253115160621b6044820152606401610b53565b5050505050565b600060208083528351808285015260005b8181101561256d57858101830151858201604001528201612551565b8181111561257f576000604083870101525b50601f01601f1916929092016040019392505050565b6000602082840312156125a757600080fd5b5035919050565b600080604083850312156125c157600080fd5b50508035926020909101359150565b6001600160a01b038116811461112957600080fd5b600080604083850312156125f857600080fd5b8235612603816125d0565b946020939093013593505050565b60006020828403121561262357600080fd5b8135610a2e816125d0565b60008060006060848603121561264357600080fd5b833561264e816125d0565b9250602084013561265e816125d0565b929592945050506040919091013590565b6000806040838503121561268257600080fd5b823591506020830135612694816125d0565b809150509250929050565b6000806000606084860312156126b457600080fd5b505081359360208301359350604090920135919050565b600080600080600080600060e0888a0312156126e657600080fd5b87356126f1816125d0565b96506020880135612701816125d0565b95506040880135945060608801359350608088013560ff8116811461272557600080fd5b9699959850939692959460a0840135945060c09093013592915050565b801515811461112957600080fd5b60006020828403121561276257600080fd5b8135610a2e81612742565b6000806040838503121561278057600080fd5b823561278b816125d0565b91506020830135612694816125d0565b600181811c908216806127af57607f821691505b6020821081036127cf57634e487b7160e01b600052602260045260246000fd5b50919050565b6020808252600c908201526b15539055551213d49256915160a21b604082015260600190565b634e487b7160e01b600052601160045260246000fd5b600082821015612823576128236127fb565b500390565b6000821982111561283b5761283b6127fb565b500190565b6001600160a01b0393841681529190921660208201526001600160e01b0319909116604082015260600190565b60006020828403121561287f57600080fd5b8151610a2e81612742565b60006020828403121561289c57600080fd5b5051919050565b6000600182016128b5576128b56127fb565b5060010190565b600080835481600182811c9150808316806128d857607f831692505b602080841082036128f757634e487b7160e01b86526022600452602486fd5b81801561290b57600181146129205761294d565b60ff198616895284151585028901965061294d565b60008a81526020902060005b868110156129455781548b82015290850190830161292c565b505084890196505b50949897505050505050505056feddf252ad1be2c89b69c2b068fc378daa952ba7f163c4a11628f55a4df523b3efa2646970667358221220ad0fb6caf9b51bf119e2bd567c895c21767ef9a6ff11b1a2955270ae5ff1d0b264736f6c634300080f0033",
    "linkReferences": {}
  },
  "methodIdentifiers": {
    "DOMAIN_SEPARATOR()": "3644e515",
    "allowance(address,address)": "dd62ed3e",
    "approve(address,uint256)": "095ea7b3",
    "asset()": "38d52e0f",
    "aum()": "0ab51bac",
    "aumCap()": "99f2dda6",
    "authority()": "bf7e214f",
    "balanceOf(address)": "70a08231",
    "convertToAssets(uint256)": "07a2d13a",
    "convertToShares(uint256)": "c6e6f592",
    "decimals()": "313ce567",
    "deposit(uint256)": "b6b55f25",
    "editAUM(uint256)": "5a157a25",
    "endManagementPhase()": "0b38bed9",
    "entryFeeBps()": "578334ee",
    "epoch()": "900cf0cf",
    "exitFeeBps()": "57b17a52",
    "farmer()": "d811fcf0",
    "feeDistributor()": "0d43e8ad",
    "getDepositFee(uint256,address)": "fa37a9ba",
    "getMaxDeposit()": "a4dbc6a8",
    "getStoredValue(address)": "907e98cd",
    "getWithdrawalAmount(address)": "56582bf9",
    "getWithdrawalFee(uint256,address)": "c1dbbc31",
    "isFeeEnabled()": "0e66dc69",
    "isManagementPhase()": "808dd5eb",
    "managementBlocksDuration()": "d49e271d",
    "managementFeeBps()": "3813c35a",
    "name()": "06fdde03",
    "nonces(address)": "7ecebe00",
    "owner()": "8da5cb5b",
    "permit(address,address,uint256,uint256,uint8,bytes32,bytes32)": "d505accf",
    "previewDeposit(uint256)": "ef8b30f7",
    "previewDepositEpoch(uint256,uint256)": "0807ac57",
    "previewMint(uint256)": "b3d7f6b9",
    "previewProgress(uint256)": "1c4ad915",
    "previewRedeem(uint256)": "4cdad506",
    "previewWithdraw(uint256)": "0a28a477",
    "progressEpoch(uint256)": "c7ba9c72",
    "sendFee()": "ae39279f",
    "setAuthority(address)": "7a9e5e4b",
    "setFeeDistributor(address)": "ccfc2e8d",
    "setFees(uint256,uint256,uint256)": "cec10c11",
    "setIsFeeEnabled(bool)": "dc4a5bff",
    "setOwner(address)": "13af4035",
    "setVaultConfigAddress(address)": "344de0ac",
    "startVault(uint256,uint256)": "a5cc958d",
    "storedFee()": "71634e32",
    "symbol()": "95d89b41",
    "totalAssets()": "01e1d114",
    "totalSupply()": "18160ddd",
    "transfer(address,uint256)": "a9059cbb",
    "transferFrom(address,address,uint256)": "23b872dd",
    "unlock(uint256)": "6198e339",
    "updateAumCap(uint256)": "f366d950",
    "updatePendingDepositState(address)": "6ea97367",
    "userHasPendingDeposit(address)": "f70881a3",
    "userHasPendingWithdrawal(address)": "d4d4be2f",
    "vaultConfigAddress()": "61bc2e33",
    "vaultStates(uint256)": "119435a4",
    "vaultUsers(address)": "849efb71",
    "withdraw()": "3ccfd60b"
  },
  "id": 13
}