{
  "abi": [
    {
      "inputs": [
        {
          "internalType": "contract ERC20",
          "name": "_underlying",
          "type": "address"
        },
        {
          "internalType": "string",
          "name": "_name",
          "type": "string"
        },
        {
          "internalType": "string",
          "name": "_symbol",
          "type": "string"
        },
        {
          "internalType": "address",
          "name": "_farmer",
          "type": "address"
        }
      ],
      "stateMutability": "nonpayable",
      "type": "constructor"
    },
    {
      "inputs": [],
      "name": "DisallowBase4626",
      "type": "error"
    },
    {
      "anonymous": false,
      "inputs": [
        {
          "indexed": true,
          "internalType": "address",
          "name": "owner",
          "type": "address"
        },
        {
          "indexed": true,
          "internalType": "address",
          "name": "spender",
          "type": "address"
        },
        {
          "indexed": false,
          "internalType": "uint256",
          "name": "amount",
          "type": "uint256"
        }
      ],
      "name": "Approval",
      "type": "event"
    },
    {
      "anonymous": false,
      "inputs": [
        {
          "indexed": true,
          "internalType": "address",
          "name": "user",
          "type": "address"
        },
        {
          "indexed": true,
          "internalType": "contract Authority",
          "name": "newAuthority",
          "type": "address"
        }
      ],
      "name": "AuthorityUpdated",
      "type": "event"
    },
    {
      "anonymous": false,
      "inputs": [
        {
          "indexed": true,
          "internalType": "address",
          "name": "caller",
          "type": "address"
        },
        {
          "indexed": true,
          "internalType": "address",
          "name": "owner",
          "type": "address"
        },
        {
          "indexed": false,
          "internalType": "uint256",
          "name": "assets",
          "type": "uint256"
        },
        {
          "indexed": false,
          "internalType": "uint256",
          "name": "shares",
          "type": "uint256"
        }
      ],
      "name": "Deposit",
      "type": "event"
    },
    {
      "anonymous": false,
      "inputs": [
        {
          "indexed": true,
          "internalType": "address",
          "name": "user",
          "type": "address"
        },
        {
          "indexed": true,
          "internalType": "address",
          "name": "newOwner",
          "type": "address"
        }
      ],
      "name": "OwnerUpdated",
      "type": "event"
    },
    {
      "anonymous": false,
      "inputs": [
        {
          "indexed": true,
          "internalType": "address",
          "name": "from",
          "type": "address"
        },
        {
          "indexed": true,
          "internalType": "address",
          "name": "to",
          "type": "address"
        },
        {
          "indexed": false,
          "internalType": "uint256",
          "name": "amount",
          "type": "uint256"
        }
      ],
      "name": "Transfer",
      "type": "event"
    },
    {
      "anonymous": false,
      "inputs": [
        {
          "indexed": true,
          "internalType": "address",
          "name": "user",
          "type": "address"
        },
        {
          "indexed": false,
          "internalType": "uint256",
          "name": "amount",
          "type": "uint256"
        }
      ],
      "name": "UserDeposit",
      "type": "event"
    },
    {
      "anonymous": false,
      "inputs": [
        {
          "indexed": true,
          "internalType": "address",
          "name": "caller",
          "type": "address"
        },
        {
          "indexed": true,
          "internalType": "address",
          "name": "receiver",
          "type": "address"
        },
        {
          "indexed": true,
          "internalType": "address",
          "name": "owner",
          "type": "address"
        },
        {
          "indexed": false,
          "internalType": "uint256",
          "name": "assets",
          "type": "uint256"
        },
        {
          "indexed": false,
          "internalType": "uint256",
          "name": "shares",
          "type": "uint256"
        }
      ],
      "name": "Withdraw",
      "type": "event"
    },
    {
      "inputs": [],
      "name": "DOMAIN_SEPARATOR",
      "outputs": [
        {
          "internalType": "bytes32",
          "name": "",
          "type": "bytes32"
        }
      ],
      "stateMutability": "view",
      "type": "function"
    },
    {
      "inputs": [
        {
          "internalType": "address",
          "name": "",
          "type": "address"
        },
        {
          "internalType": "address",
          "name": "",
          "type": "address"
        }
      ],
      "name": "allowance",
      "outputs": [
        {
          "internalType": "uint256",
          "name": "",
          "type": "uint256"
        }
      ],
      "stateMutability": "view",
      "type": "function"
    },
    {
      "inputs": [
        {
          "internalType": "address",
          "name": "spender",
          "type": "address"
        },
        {
          "internalType": "uint256",
          "name": "amount",
          "type": "uint256"
        }
      ],
      "name": "approve",
      "outputs": [
        {
          "internalType": "bool",
          "name": "",
          "type": "bool"
        }
      ],
      "stateMutability": "nonpayable",
      "type": "function"
    },
    {
      "inputs": [],
      "name": "asset",
      "outputs": [
        {
          "internalType": "contract ERC20",
          "name": "",
          "type": "address"
        }
      ],
      "stateMutability": "view",
      "type": "function"
    },
    {
      "inputs": [],
      "name": "aum",
      "outputs": [
        {
          "internalType": "uint256",
          "name": "",
          "type": "uint256"
        }
      ],
      "stateMutability": "view",
      "type": "function"
    },
    {
      "inputs": [],
      "name": "authority",
      "outputs": [
        {
          "internalType": "contract Authority",
          "name": "",
          "type": "address"
        }
      ],
      "stateMutability": "view",
      "type": "function"
    },
    {
      "inputs": [
        {
          "internalType": "address",
          "name": "",
          "type": "address"
        }
      ],
      "name": "balanceOf",
      "outputs": [
        {
          "internalType": "uint256",
          "name": "",
          "type": "uint256"
        }
      ],
      "stateMutability": "view",
      "type": "function"
    },
    {
      "inputs": [],
      "name": "claimAsset",
      "outputs": [],
      "stateMutability": "nonpayable",
      "type": "function"
    },
    {
      "inputs": [],
      "name": "claimFee",
      "outputs": [],
      "stateMutability": "nonpayable",
      "type": "function"
    },
    {
      "inputs": [
        {
          "internalType": "uint256",
          "name": "shares",
          "type": "uint256"
        }
      ],
      "name": "convertToAssets",
      "outputs": [
        {
          "internalType": "uint256",
          "name": "",
          "type": "uint256"
        }
      ],
      "stateMutability": "view",
      "type": "function"
    },
    {
      "inputs": [
        {
          "internalType": "uint256",
          "name": "assets",
          "type": "uint256"
        }
      ],
      "name": "convertToShares",
      "outputs": [
        {
          "internalType": "uint256",
          "name": "",
          "type": "uint256"
        }
      ],
      "stateMutability": "view",
      "type": "function"
    },
    {
      "inputs": [],
      "name": "decimals",
      "outputs": [
        {
          "internalType": "uint8",
          "name": "",
          "type": "uint8"
        }
      ],
      "stateMutability": "view",
      "type": "function"
    },
    {
      "inputs": [
        {
          "internalType": "uint256",
          "name": "",
          "type": "uint256"
        },
        {
          "internalType": "address",
          "name": "",
          "type": "address"
        }
      ],
      "name": "deposit",
      "outputs": [
        {
          "internalType": "uint256",
          "name": "",
          "type": "uint256"
        }
      ],
      "stateMutability": "pure",
      "type": "function"
    },
    {
      "inputs": [],
      "name": "epoch",
      "outputs": [
        {
          "internalType": "uint256",
          "name": "",
          "type": "uint256"
        }
      ],
      "stateMutability": "view",
      "type": "function"
    },
    {
      "inputs": [
        {
          "internalType": "uint256",
          "name": "_epoch",
          "type": "uint256"
        }
      ],
      "name": "epochExchangeRate",
      "outputs": [
        {
          "internalType": "uint256",
          "name": "",
          "type": "uint256"
        }
      ],
      "stateMutability": "view",
      "type": "function"
    },
    {
      "inputs": [],
      "name": "farmer",
      "outputs": [
        {
          "internalType": "address",
          "name": "",
          "type": "address"
        }
      ],
      "stateMutability": "view",
      "type": "function"
    },
    {
      "inputs": [],
      "name": "feeDistributor",
      "outputs": [
        {
          "internalType": "address",
          "name": "",
          "type": "address"
        }
      ],
      "stateMutability": "view",
      "type": "function"
    },
    {
      "inputs": [
        {
          "internalType": "address",
          "name": "",
          "type": "address"
        }
      ],
      "name": "maxDeposit",
      "outputs": [
        {
          "internalType": "uint256",
          "name": "",
          "type": "uint256"
        }
      ],
      "stateMutability": "view",
      "type": "function"
    },
    {
      "inputs": [
        {
          "internalType": "address",
          "name": "",
          "type": "address"
        }
      ],
      "name": "maxMint",
      "outputs": [
        {
          "internalType": "uint256",
          "name": "",
          "type": "uint256"
        }
      ],
      "stateMutability": "view",
      "type": "function"
    },
    {
      "inputs": [
        {
          "internalType": "address",
          "name": "owner",
          "type": "address"
        }
      ],
      "name": "maxRedeem",
      "outputs": [
        {
          "internalType": "uint256",
          "name": "",
          "type": "uint256"
        }
      ],
      "stateMutability": "view",
      "type": "function"
    },
    {
      "inputs": [
        {
          "internalType": "address",
          "name": "owner",
          "type": "address"
        }
      ],
      "name": "maxWithdraw",
      "outputs": [
        {
          "internalType": "uint256",
          "name": "",
          "type": "uint256"
        }
      ],
      "stateMutability": "view",
      "type": "function"
    },
    {
      "inputs": [
        {
          "internalType": "uint256",
          "name": "",
          "type": "uint256"
        },
        {
          "internalType": "address",
          "name": "",
          "type": "address"
        }
      ],
      "name": "mint",
      "outputs": [
        {
          "internalType": "uint256",
          "name": "",
          "type": "uint256"
        }
      ],
      "stateMutability": "pure",
      "type": "function"
    },
    {
      "inputs": [],
      "name": "name",
      "outputs": [
        {
          "internalType": "string",
          "name": "",
          "type": "string"
        }
      ],
      "stateMutability": "view",
      "type": "function"
    },
    {
      "inputs": [
        {
          "internalType": "address",
          "name": "",
          "type": "address"
        }
      ],
      "name": "nonces",
      "outputs": [
        {
          "internalType": "uint256",
          "name": "",
          "type": "uint256"
        }
      ],
      "stateMutability": "view",
      "type": "function"
    },
    {
      "inputs": [],
      "name": "owner",
      "outputs": [
        {
          "internalType": "address",
          "name": "",
          "type": "address"
        }
      ],
      "stateMutability": "view",
      "type": "function"
    },
    {
      "inputs": [
        {
          "internalType": "address",
          "name": "owner",
          "type": "address"
        },
        {
          "internalType": "address",
          "name": "spender",
          "type": "address"
        },
        {
          "internalType": "uint256",
          "name": "value",
          "type": "uint256"
        },
        {
          "internalType": "uint256",
          "name": "deadline",
          "type": "uint256"
        },
        {
          "internalType": "uint8",
          "name": "v",
          "type": "uint8"
        },
        {
          "internalType": "bytes32",
          "name": "r",
          "type": "bytes32"
        },
        {
          "internalType": "bytes32",
          "name": "s",
          "type": "bytes32"
        }
      ],
      "name": "permit",
      "outputs": [],
      "stateMutability": "nonpayable",
      "type": "function"
    },
    {
      "inputs": [
        {
          "internalType": "address",
          "name": "_user",
          "type": "address"
        }
      ],
      "name": "previewClaim",
      "outputs": [
        {
          "internalType": "uint256",
          "name": "",
          "type": "uint256"
        }
      ],
      "stateMutability": "view",
      "type": "function"
    },
    {
      "inputs": [
        {
          "internalType": "uint256",
          "name": "assets",
          "type": "uint256"
        }
      ],
      "name": "previewDeposit",
      "outputs": [
        {
          "internalType": "uint256",
          "name": "",
          "type": "uint256"
        }
      ],
      "stateMutability": "view",
      "type": "function"
    },
    {
      "inputs": [
        {
          "internalType": "uint256",
          "name": "shares",
          "type": "uint256"
        }
      ],
      "name": "previewMint",
      "outputs": [
        {
          "internalType": "uint256",
          "name": "",
          "type": "uint256"
        }
      ],
      "stateMutability": "view",
      "type": "function"
    },
    {
      "inputs": [
        {
          "internalType": "uint256",
          "name": "_externalAsset",
          "type": "uint256"
        }
      ],
      "name": "previewProgress",
      "outputs": [
        {
          "internalType": "bool",
          "name": "",
          "type": "bool"
        },
        {
          "internalType": "uint256",
          "name": "",
          "type": "uint256"
        }
      ],
      "stateMutability": "view",
      "type": "function"
    },
    {
      "inputs": [
        {
          "internalType": "uint256",
          "name": "shares",
          "type": "uint256"
        }
      ],
      "name": "previewRedeem",
      "outputs": [
        {
          "internalType": "uint256",
          "name": "",
          "type": "uint256"
        }
      ],
      "stateMutability": "view",
      "type": "function"
    },
    {
      "inputs": [
        {
          "internalType": "uint256",
          "name": "assets",
          "type": "uint256"
        }
      ],
      "name": "previewWithdraw",
      "outputs": [
        {
          "internalType": "uint256",
          "name": "",
          "type": "uint256"
        }
      ],
      "stateMutability": "view",
      "type": "function"
    },
    {
      "inputs": [
        {
          "internalType": "uint256",
          "name": "_externalAssetBeforeFees",
          "type": "uint256"
        }
      ],
      "name": "progressEpoch",
      "outputs": [
        {
          "internalType": "uint256",
          "name": "",
          "type": "uint256"
        }
      ],
      "stateMutability": "nonpayable",
      "type": "function"
    },
    {
      "inputs": [
        {
          "internalType": "uint256",
          "name": "",
          "type": "uint256"
        },
        {
          "internalType": "address",
          "name": "",
          "type": "address"
        },
        {
          "internalType": "address",
          "name": "",
          "type": "address"
        }
      ],
      "name": "redeem",
      "outputs": [
        {
          "internalType": "uint256",
          "name": "",
          "type": "uint256"
        }
      ],
      "stateMutability": "pure",
      "type": "function"
    },
    {
      "inputs": [
        {
          "internalType": "contract Authority",
          "name": "newAuthority",
          "type": "address"
        }
      ],
      "name": "setAuthority",
      "outputs": [],
      "stateMutability": "nonpayable",
      "type": "function"
    },
    {
      "inputs": [
        {
          "internalType": "address",
          "name": "newOwner",
          "type": "address"
        }
      ],
      "name": "setOwner",
      "outputs": [],
      "stateMutability": "nonpayable",
      "type": "function"
    },
    {
      "inputs": [
        {
          "internalType": "uint256",
          "name": "_initialExternalAsset",
          "type": "uint256"
        }
      ],
      "name": "startVault",
      "outputs": [],
      "stateMutability": "nonpayable",
      "type": "function"
    },
    {
      "inputs": [
        {
          "internalType": "uint256",
          "name": "_assets",
          "type": "uint256"
        }
      ],
      "name": "storeAssetForDeposit",
      "outputs": [],
      "stateMutability": "nonpayable",
      "type": "function"
    },
    {
      "inputs": [],
      "name": "symbol",
      "outputs": [
        {
          "internalType": "string",
          "name": "",
          "type": "string"
        }
      ],
      "stateMutability": "view",
      "type": "function"
    },
    {
      "inputs": [],
      "name": "totalAssets",
      "outputs": [
        {
          "internalType": "uint256",
          "name": "",
          "type": "uint256"
        }
      ],
      "stateMutability": "view",
      "type": "function"
    },
    {
      "inputs": [],
      "name": "totalSupply",
      "outputs": [
        {
          "internalType": "uint256",
          "name": "",
          "type": "uint256"
        }
      ],
      "stateMutability": "view",
      "type": "function"
    },
    {
      "inputs": [
        {
          "internalType": "address",
          "name": "to",
          "type": "address"
        },
        {
          "internalType": "uint256",
          "name": "amount",
          "type": "uint256"
        }
      ],
      "name": "transfer",
      "outputs": [
        {
          "internalType": "bool",
          "name": "",
          "type": "bool"
        }
      ],
      "stateMutability": "nonpayable",
      "type": "function"
    },
    {
      "inputs": [
        {
          "internalType": "address",
          "name": "from",
          "type": "address"
        },
        {
          "internalType": "address",
          "name": "to",
          "type": "address"
        },
        {
          "internalType": "uint256",
          "name": "amount",
          "type": "uint256"
        }
      ],
      "name": "transferFrom",
      "outputs": [
        {
          "internalType": "bool",
          "name": "",
          "type": "bool"
        }
      ],
      "stateMutability": "nonpayable",
      "type": "function"
    },
    {
      "inputs": [
        {
          "internalType": "uint256",
          "name": "_shares",
          "type": "uint256"
        }
      ],
      "name": "unlockShareForRedeem",
      "outputs": [],
      "stateMutability": "nonpayable",
      "type": "function"
    },
    {
      "inputs": [
        {
          "internalType": "bool",
          "name": "_isFeeEnabled",
          "type": "bool"
        },
        {
          "internalType": "uint256",
          "name": "_entryFee",
          "type": "uint256"
        },
        {
          "internalType": "uint256",
          "name": "_exitFee",
          "type": "uint256"
        },
        {
          "internalType": "uint256",
          "name": "_managementFee",
          "type": "uint256"
        }
      ],
      "name": "updateFeeSettings",
      "outputs": [],
      "stateMutability": "nonpayable",
      "type": "function"
    },
    {
      "inputs": [
        {
          "internalType": "address",
          "name": "_user",
          "type": "address"
        }
      ],
      "name": "updatePendingUserState",
      "outputs": [],
      "stateMutability": "nonpayable",
      "type": "function"
    },
    {
      "inputs": [
        {
          "internalType": "address",
          "name": "_user",
          "type": "address"
        }
      ],
      "name": "userHasPendingRedeem",
      "outputs": [
        {
          "internalType": "bool",
          "name": "",
          "type": "bool"
        }
      ],
      "stateMutability": "view",
      "type": "function"
    },
    {
      "inputs": [
        {
          "internalType": "address",
          "name": "_user",
          "type": "address"
        }
      ],
      "name": "userHasPendingUpdate",
      "outputs": [
        {
          "internalType": "bool",
          "name": "",
          "type": "bool"
        }
      ],
      "stateMutability": "view",
      "type": "function"
    },
    {
      "inputs": [
        {
          "internalType": "uint256",
          "name": "",
          "type": "uint256"
        }
      ],
      "name": "vaultStates",
      "outputs": [
        {
          "internalType": "uint256",
          "name": "assetsExternalStart",
          "type": "uint256"
        },
        {
          "internalType": "uint256",
          "name": "assetsToDeposit",
          "type": "uint256"
        },
        {
          "internalType": "uint256",
          "name": "sharesToRedeem",
          "type": "uint256"
        },
        {
          "internalType": "uint256",
          "name": "assetsExternalEnd",
          "type": "uint256"
        },
        {
          "internalType": "uint256",
          "name": "totalSupply",
          "type": "uint256"
        }
      ],
      "stateMutability": "view",
      "type": "function"
    },
    {
      "inputs": [
        {
          "internalType": "address",
          "name": "",
          "type": "address"
        }
      ],
      "name": "vaultUsers",
      "outputs": [
        {
          "internalType": "uint256",
          "name": "assetsDeposited",
          "type": "uint256"
        },
        {
          "internalType": "uint256",
          "name": "epochLastDeposited",
          "type": "uint256"
        },
        {
          "internalType": "uint256",
          "name": "vaultShares",
          "type": "uint256"
        },
        {
          "internalType": "uint256",
          "name": "sharesToRedeem",
          "type": "uint256"
        },
        {
          "internalType": "uint256",
          "name": "epochToRedeem",
          "type": "uint256"
        }
      ],
      "stateMutability": "view",
      "type": "function"
    },
    {
      "inputs": [
        {
          "internalType": "uint256",
          "name": "",
          "type": "uint256"
        },
        {
          "internalType": "address",
          "name": "",
          "type": "address"
        },
        {
          "internalType": "address",
          "name": "",
          "type": "address"
        }
      ],
      "name": "withdraw",
      "outputs": [
        {
          "internalType": "uint256",
          "name": "",
          "type": "uint256"
        }
      ],
      "stateMutability": "pure",
      "type": "function"
    }
  ],
  "bytecode": {
    "object": "0x610100604052600060088190556009556107d0600d556064600e819055600f556011805460ff191690553480156200003657600080fd5b50604051620033f7380380620033f78339810160408190526200005991620003fc565b8060008585858181846001600160a01b031663313ce5676040518163ffffffff1660e01b8152600401602060405180830381865afa158015620000a0573d6000803e3d6000fd5b505050506040513d601f19601f82011682018060405250810190620000c6919062000490565b8251620000db90600090602086019062000270565b508151620000f190600190602085019062000270565b5060ff81166080524660a05262000107620001d4565b60c0525050506001600160a01b0392831660e0525050600680548483166001600160a01b0319918216811790925560078054938516939091169290921790915560405133907f8292fce18fa69edf4db7b94ea2e58241df0ae57f97e0a6c9b29067028bf92d7690600090a36040516001600160a01b0382169033907fa3396fd7f6e0a21b50e5089d2da70d5ac0a3bbbd1f617a93f134b7638998019890600090a35050600a80546001600160a01b0319166001600160a01b0392909216919091179055506200059b915050565b60007f8b73c3c69bb8fe3d512ecc4cf759cc79239f7b179b0ffacaa9a75d522b39400f6000604051620002089190620004f8565b6040805191829003822060208301939093528101919091527fc89efdaa54c0f20c7adf612882df0950f5a951637e0307cdcb4c672f298b8bc660608201524660808201523060a082015260c00160405160208183030381529060405280519060200120905090565b8280546200027e90620004bc565b90600052602060002090601f016020900481019282620002a25760008555620002ed565b82601f10620002bd57805160ff1916838001178555620002ed565b82800160010185558215620002ed579182015b82811115620002ed578251825591602001919060010190620002d0565b50620002fb929150620002ff565b5090565b5b80821115620002fb576000815560010162000300565b6001600160a01b03811681146200032c57600080fd5b50565b634e487b7160e01b600052604160045260246000fd5b600082601f8301126200035757600080fd5b81516001600160401b03808211156200037457620003746200032f565b604051601f8301601f19908116603f011681019082821181831017156200039f576200039f6200032f565b81604052838152602092508683858801011115620003bc57600080fd5b600091505b83821015620003e05785820183015181830184015290820190620003c1565b83821115620003f25760008385830101525b9695505050505050565b600080600080608085870312156200041357600080fd5b8451620004208162000316565b60208601519094506001600160401b03808211156200043e57600080fd5b6200044c8883890162000345565b945060408701519150808211156200046357600080fd5b50620004728782880162000345565b9250506060850151620004858162000316565b939692955090935050565b600060208284031215620004a357600080fd5b815160ff81168114620004b557600080fd5b9392505050565b600181811c90821680620004d157607f821691505b602082108103620004f257634e487b7160e01b600052602260045260246000fd5b50919050565b600080835481600182811c9150808316806200051557607f831692505b602080841082036200053557634e487b7160e01b86526022600452602486fd5b8180156200054c57600181146200055e576200058d565b60ff198616895284890196506200058d565b60008a81526020902060005b86811015620005855781548b8201529085019083016200056a565b505084890196505b509498975050505050505050565b60805160a05160c05160e051612df16200060660003960008181610535015281816113560152818161165c0152818161178e01528181611aeb01528181611bbc01528181611c770152611d9f01526000610ee701526000610eb2015260006104e10152612df16000f3fe608060405234801561001057600080fd5b50600436106103415760003560e01c806373203593116101bd578063b460af94116100f9578063ce96cb77116100a2578063d905777e1161007c578063d905777e146107b3578063dd62ed3e146107e9578063ebb1699f14610814578063ef8b30f71461082757600080fd5b8063ce96cb771461076d578063d505accf14610780578063d811fcf01461079357600080fd5b8063c63d75b6116100d3578063c63d75b61461057d578063c6e6f59214610747578063c7ba9c721461075a57600080fd5b8063b460af9414610719578063ba08765214610719578063bf7e214f1461072757600080fd5b8063900cf0cf1161016657806399d32fc41161014057806399d32fc4146106d85780639c117620146106e0578063a9059cbb146106f3578063b3d7f6b91461070657600080fd5b8063900cf0cf146106c757806394bf804d146105e957806395d89b41146106d057600080fd5b80637ecebe00116101975780637ecebe001461064a578063849efb711461066a5780638da5cb5b146106a757600080fd5b8063732035931461061c5780637a9e5e4b146106245780637adfc0b71461063757600080fd5b806323b872dd1161028c5780633d770a4f116102355780634fc64bd81161020f5780634fc64bd8146105c35780636770e25a146105d65780636e553f65146105e957806370a08231146105fc57600080fd5b80633d770a4f1461056a578063402d267d1461057d5780634cdad506146105b057600080fd5b80633644e515116102665780633644e5151461052857806338d52e0f146105305780633a21cce61461055757600080fd5b806323b872dd146104c9578063313ce567146104dc57806331ba008c1461051557600080fd5b80630d43e8ad116102ee5780631519b29a116102c85780631519b29a1461048357806318160ddd146104965780631c4ad9151461049f57600080fd5b80630d43e8ad146103c4578063119435a41461040957806313af40351461046e57600080fd5b8063095ea7b31161031f578063095ea7b3146103855780630a28a477146103a85780630ab51bac146103bb57600080fd5b806301e1d1141461034657806306fdde031461035d57806307a2d13a14610372575b600080fd5b6008545b6040519081526020015b60405180910390f35b61036561083a565b6040516103549190612932565b61034a6103803660046129a5565b6108c8565b6103986103933660046129e0565b6108f6565b6040519015158152602001610354565b61034a6103b63660046129a5565b61096f565b61034a60085481565b600b546103e49073ffffffffffffffffffffffffffffffffffffffff1681565b60405173ffffffffffffffffffffffffffffffffffffffff9091168152602001610354565b6104466104173660046129a5565b600c60205260009081526040902080546001820154600283015460038401546004909401549293919290919085565b604080519586526020860194909452928401919091526060830152608082015260a001610354565b61048161047c366004612a0c565b610990565b005b610481610491366004612a37565b610a9a565b61034a60025481565b6104b26104ad3660046129a5565b610b6c565b604080519215158352602083019190915201610354565b6103986104d7366004612a72565b610bdb565b6105037f000000000000000000000000000000000000000000000000000000000000000081565b60405160ff9091168152602001610354565b61034a610523366004612a0c565b610d1f565b61034a610eae565b6103e47f000000000000000000000000000000000000000000000000000000000000000081565b610398610565366004612a0c565b610f09565b61034a6105783660046129a5565b610f46565b61034a61058b366004612a0c565b507fffffffffffffffffffffffffffffffffffffffffffffffffffffffffffffffff90565b61034a6105be3660046129a5565b610fab565b6104816105d1366004612a0c565b610fb6565b6104816105e43660046129a5565b611097565b61034a6105f7366004612ab3565b61117b565b61034a61060a366004612a0c565b60036020526000908152604090205481565b6104816111af565b610481610632366004612a0c565b6113c9565b6104816106453660046129a5565b611526565b61034a610658366004612a0c565b60056020526000908152604090205481565b610446610678366004612a0c565b601260205260009081526040902080546001820154600283015460038401546004909401549293919290919085565b6006546103e49073ffffffffffffffffffffffffffffffffffffffff1681565b61034a60095481565b6103656116be565b6104816116cb565b6103986106ee366004612a0c565b6117fb565b6103986107013660046129e0565b611861565b61034a6107143660046129a5565b6118e6565b61034a6105f7366004612ae3565b6007546103e49073ffffffffffffffffffffffffffffffffffffffff1681565b61034a6107553660046129a5565b611906565b61034a6107683660046129a5565b611927565b61034a61077b366004612a0c565b611e2e565b61048161078e366004612b25565b611e5d565b600a546103e49073ffffffffffffffffffffffffffffffffffffffff1681565b61034a6107c1366004612a0c565b73ffffffffffffffffffffffffffffffffffffffff1660009081526003602052604090205490565b61034a6107f7366004612b9c565b600460209081526000928352604080842090915290825290205481565b6104816108223660046129a5565b61217c565b61034a6108353660046129a5565b6123d9565b6000805461084790612bca565b80601f016020809104026020016040519081016040528092919081815260200182805461087390612bca565b80156108c05780601f10610895576101008083540402835291602001916108c0565b820191906000526020600020905b8154815290600101906020018083116108a357829003601f168201915b505050505081565b60025460009080156108ed576108e86108e060085490565b8490836123e4565b6108ef565b825b9392505050565b33600081815260046020908152604080832073ffffffffffffffffffffffffffffffffffffffff8716808552925280832085905551919290917f8c5be1e5ebec7d5bd14f71427d1e84f3dd0314c0f7b2291e5b200ac8c7c3b9259061095e9086815260200190565b60405180910390a350600192915050565b60025460009080156108ed576108e88161098860085490565b859190612403565b6109be336000357fffffffff0000000000000000000000000000000000000000000000000000000016612431565b610a29576040517f08c379a000000000000000000000000000000000000000000000000000000000815260206004820152600c60248201527f554e415554484f52495a4544000000000000000000000000000000000000000060448201526064015b60405180910390fd5b600680547fffffffffffffffffffffffff00000000000000000000000000000000000000001673ffffffffffffffffffffffffffffffffffffffff831690811790915560405133907f8292fce18fa69edf4db7b94ea2e58241df0ae57f97e0a6c9b29067028bf92d7690600090a350565b610ac8336000357fffffffff0000000000000000000000000000000000000000000000000000000016612431565b610b2e576040517f08c379a000000000000000000000000000000000000000000000000000000000815260206004820152600c60248201527f554e415554484f52495a454400000000000000000000000000000000000000006044820152606401610a20565b601180547fffffffffffffffffffffffffffffffffffffffffffffffffffffffffffffff001694151594909417909355600e91909155600f55600d55565b6009546000908152600c6020526040812060018101546002918201549154839290838115610ba457610b9f8388846123e4565b610ba6565b825b9050808411600081610bc157610bbc8684612c4c565b610bcb565b610bcb8387612c4c565b9199919850909650505050505050565b73ffffffffffffffffffffffffffffffffffffffff831660009081526004602090815260408083203384529091528120547fffffffffffffffffffffffffffffffffffffffffffffffffffffffffffffffff8114610c6f57610c3d8382612c4c565b73ffffffffffffffffffffffffffffffffffffffff861660009081526004602090815260408083203384529091529020555b73ffffffffffffffffffffffffffffffffffffffff851660009081526003602052604081208054859290610ca4908490612c4c565b909155505073ffffffffffffffffffffffffffffffffffffffff808516600081815260036020526040908190208054870190555190918716907fddf252ad1be2c89b69c2b068fc378daa952ba7f163c4a11628f55a4df523b3ef90610d0c9087815260200190565b60405180910390a3506001949350505050565b60008060095411610d8c576040517f08c379a000000000000000000000000000000000000000000000000000000000815260206004820152600a60248201527f45504f43485f5a45524f000000000000000000000000000000000000000000006044820152606401610a20565b610d95826117fb565b610dfb576040517f08c379a000000000000000000000000000000000000000000000000000000000815260206004820152601160248201527f4e4f5f50454e44494e475f52454445454d0000000000000000000000000000006044820152606401610a20565b73ffffffffffffffffffffffffffffffffffffffff8216600090815260126020526040812060038101546004909101549091600c81610e3b600185612c4c565b81526020019081526020016000206040518060a0016040529081600082015481526020016001820154815260200160028201548152602001600382015481526020016004820154815250509050610ea581606001518260800151856123e49092919063ffffffff16565b95945050505050565b60007f00000000000000000000000000000000000000000000000000000000000000004614610ee457610edf612542565b905090565b507f000000000000000000000000000000000000000000000000000000000000000090565b73ffffffffffffffffffffffffffffffffffffffff811660009081526012602052604081206001015480158015906108ef57506009541192915050565b6000818152600c60205260408120600301541580610f7357506000828152600c6020526040902060040154155b15610f8057506001919050565b6000828152600c602052604090206004810154600390910154610fa5916001906123e4565b92915050565b6000610fa5826108c8565b610fbf81610f09565b156110945773ffffffffffffffffffffffffffffffffffffffff8116600090815260126020526040902060019081015461102a9190610ffd90610f46565b73ffffffffffffffffffffffffffffffffffffffff841660009081526012602052604090205491906123e4565b73ffffffffffffffffffffffffffffffffffffffff821660009081526012602052604081206002018054909190611062908490612c63565b909155505073ffffffffffffffffffffffffffffffffffffffff81166000908152601260205260408120818155600101555b50565b6110c5336000357fffffffff0000000000000000000000000000000000000000000000000000000016612431565b61112b576040517f08c379a000000000000000000000000000000000000000000000000000000000815260206004820152600c60248201527f554e415554484f52495a454400000000000000000000000000000000000000006044820152606401610a20565b6009541561113857600080fd5b8015611163576008819055600061114e826125dc565b33600090815260126020526040902060020155505b6009805490600061117383612c7b565b919050555050565b60006040517fe6a08d5300000000000000000000000000000000000000000000000000000000815260040160405180910390fd5b60006009541161121b576040517f08c379a000000000000000000000000000000000000000000000000000000000815260206004820152600a60248201527f45504f43485f5a45524f000000000000000000000000000000000000000000006044820152606401610a20565b611224336117fb565b61128a576040517f08c379a000000000000000000000000000000000000000000000000000000000815260206004820152601160248201527f4e4f5f50454e44494e475f52454445454d0000000000000000000000000000006044820152606401610a20565b61129333610fb6565b600061129e33610d1f565b60115490915060009060ff166112b55760006112c6565b600f546112c6908390612710612403565b905060006112d48284612c4c565b905081601060008282546112e89190612c63565b90915550503360008181526012602052604080822060038101839055600490810192909255517fa9059cbb000000000000000000000000000000000000000000000000000000008152908101919091526024810182905273ffffffffffffffffffffffffffffffffffffffff7f0000000000000000000000000000000000000000000000000000000000000000169063a9059cbb906044016020604051808303816000875af115801561139f573d6000803e3d6000fd5b505050506040513d601f19601f820116820180604052508101906113c39190612cb3565b50505050565b60065473ffffffffffffffffffffffffffffffffffffffff163314806114ac57506007546040517fb70096130000000000000000000000000000000000000000000000000000000081523360048201523060248201526000357fffffffff0000000000000000000000000000000000000000000000000000000016604482015273ffffffffffffffffffffffffffffffffffffffff9091169063b700961390606401602060405180830381865afa158015611488573d6000803e3d6000fd5b505050506040513d601f19601f820116820180604052508101906114ac9190612cb3565b6114b557600080fd5b600780547fffffffffffffffffffffffff00000000000000000000000000000000000000001673ffffffffffffffffffffffffffffffffffffffff831690811790915560405133907fa3396fd7f6e0a21b50e5089d2da70d5ac0a3bbbd1f617a93f134b7638998019890600090a350565b600060095411611592576040517f08c379a000000000000000000000000000000000000000000000000000000000815260206004820152600a60248201527f45504f43485f5a45524f000000000000000000000000000000000000000000006044820152606401610a20565b60115460009060ff166115a65760006115b7565b600e546115b7908390612710612403565b905060006115c58284612c4c565b905081601060008282546115d99190612c63565b909155506115e8905033610fb6565b6009543360009081526012602052604081206001810192909255815483929190611613908490612c63565b90915550506009546000908152600c60205260408120600101805483929061163c908490612c63565b90915550611684905073ffffffffffffffffffffffffffffffffffffffff7f0000000000000000000000000000000000000000000000000000000000000000163330866126a1565b60405181815233907f35db3d768e685509e031bae369804ca7dc6656af739e079f1d3312cadc7b19d89060200160405180910390a2505050565b6001805461084790612bca565b600060105411611737576040517f08c379a000000000000000000000000000000000000000000000000000000000815260206004820152600d60248201527f4e4f5f53544f5245445f464545000000000000000000000000000000000000006044820152606401610a20565b60006010819055600b546040517fa9059cbb00000000000000000000000000000000000000000000000000000000815273ffffffffffffffffffffffffffffffffffffffff918216600482015260248101929092527f0000000000000000000000000000000000000000000000000000000000000000169063a9059cbb906044016020604051808303816000875af11580156117d7573d6000803e3d6000fd5b505050506040513d601f19601f820116820180604052508101906110949190612cb3565b73ffffffffffffffffffffffffffffffffffffffff811660009081526012602052604081206004015415801590610fa5575060095473ffffffffffffffffffffffffffffffffffffffff8316600090815260126020526040902060040154111592915050565b33600090815260036020526040812080548391908390611882908490612c4c565b909155505073ffffffffffffffffffffffffffffffffffffffff8316600081815260036020526040908190208054850190555133907fddf252ad1be2c89b69c2b068fc378daa952ba7f163c4a11628f55a4df523b3ef9061095e9086815260200190565b60025460009080156108ed576108e86118fe60085490565b849083612403565b60025460009080156108ed576108e88161191f60085490565b8591906123e4565b6000611957336000357fffffffff0000000000000000000000000000000000000000000000000000000016612431565b6119bd576040517f08c379a000000000000000000000000000000000000000000000000000000000815260206004820152600c60248201527f554e415554484f52495a454400000000000000000000000000000000000000006044820152606401610a20565b6009546000908152600c602052604081205460115490919060ff1680156119e357508184115b6119ee576000611a07565b611a076119fb8386612c4c565b600d5490612710612403565b90506000611a158286612c4c565b90508160106000828254611a299190612c63565b9091555050600980546000908152600c602052604080822060030184905560025492548252812060040191909155600882905580611a6683610b6c565b600980549294509092506000611a7b83612c7b565b9190505550818015611a8d5750600081115b15611b7357611a9b816125dc565b50600a546040517fa9059cbb00000000000000000000000000000000000000000000000000000000815273ffffffffffffffffffffffffffffffffffffffff9182166004820152602481018390527f00000000000000000000000000000000000000000000000000000000000000009091169063a9059cbb906044016020604051808303816000875af1158015611b36573d6000803e3d6000fd5b505050506040513d601f19601f82011682018060405250810190611b5a9190612cb3565b508060086000828254611b6d9190612c63565b90915550505b81158015611b815750600081115b15611e0c576040517fdd62ed3e00000000000000000000000000000000000000000000000000000000815233600482015230602482015281907f000000000000000000000000000000000000000000000000000000000000000073ffffffffffffffffffffffffffffffffffffffff169063dd62ed3e90604401602060405180830381865afa158015611c18573d6000803e3d6000fd5b505050506040513d601f19601f82011682018060405250810190611c3c9190612cd0565b1015611c4757600080fd5b6040517f70a0823100000000000000000000000000000000000000000000000000000000815233600482015281907f000000000000000000000000000000000000000000000000000000000000000073ffffffffffffffffffffffffffffffffffffffff16906370a0823190602401602060405180830381865afa158015611cd3573d6000803e3d6000fd5b505050506040513d601f19601f82011682018060405250810190611cf79190612cd0565b1015611d85576040517f08c379a000000000000000000000000000000000000000000000000000000000815260206004820152602160248201527f6661726d65722061737365742062616c616e636520696e73756666696369656e60448201527f74000000000000000000000000000000000000000000000000000000000000006064820152608401610a20565b611dc773ffffffffffffffffffffffffffffffffffffffff7f0000000000000000000000000000000000000000000000000000000000000000163330846126a1565b611df4600c60006001600954611ddd9190612c4c565b815260200190815260200160002060020154612767565b8060086000828254611e069190612c4c565b90915550505b50506008546009546000908152600c6020526040902081905595945050505050565b73ffffffffffffffffffffffffffffffffffffffff8116600090815260036020526040812054610fa5906108c8565b42841015611ec7576040517f08c379a000000000000000000000000000000000000000000000000000000000815260206004820152601760248201527f5045524d49545f444541444c494e455f455850495245440000000000000000006044820152606401610a20565b60006001611ed3610eae565b73ffffffffffffffffffffffffffffffffffffffff8a811660008181526005602090815260409182902080546001810190915582517f6e71edae12b1b97f4d1f60370fef10105fa2faae0126114a169c64845d6126c98184015280840194909452938d166060840152608083018c905260a083019390935260c08083018b90528151808403909101815260e0830190915280519201919091207f190100000000000000000000000000000000000000000000000000000000000061010083015261010282019290925261012281019190915261014201604080517fffffffffffffffffffffffffffffffffffffffffffffffffffffffffffffffe08184030181528282528051602091820120600084529083018083525260ff871690820152606081018590526080810184905260a0016020604051602081039080840390855afa158015612025573d6000803e3d6000fd5b50506040517fffffffffffffffffffffffffffffffffffffffffffffffffffffffffffffffe0015191505073ffffffffffffffffffffffffffffffffffffffff8116158015906120a057508773ffffffffffffffffffffffffffffffffffffffff168173ffffffffffffffffffffffffffffffffffffffff16145b612106576040517f08c379a000000000000000000000000000000000000000000000000000000000815260206004820152600e60248201527f494e56414c49445f5349474e45520000000000000000000000000000000000006044820152606401610a20565b73ffffffffffffffffffffffffffffffffffffffff90811660009081526004602090815260408083208a8516808552908352928190208990555188815291928a16917f8c5be1e5ebec7d5bd14f71427d1e84f3dd0314c0f7b2291e5b200ac8c7c3b925910160405180910390a350505050505050565b6000600954116121e8576040517f08c379a000000000000000000000000000000000000000000000000000000000815260206004820152600a60248201527f45504f43485f5a45524f000000000000000000000000000000000000000000006044820152606401610a20565b60008111612252576040517f08c379a000000000000000000000000000000000000000000000000000000000815260206004820152600e60248201527f494e56414c49445f5348415245530000000000000000000000000000000000006044820152606401610a20565b61225b336117fb565b156122c2576040517f08c379a000000000000000000000000000000000000000000000000000000000815260206004820152600e60248201527f50454e44494e475f52454445454d0000000000000000000000000000000000006044820152606401610a20565b6122cb33610fb6565b336000908152601260205260409020600301546122e9908290612c63565b336000908152601260205260409020600201541015612364576040517f08c379a000000000000000000000000000000000000000000000000000000000815260206004820152601160248201527f4e4f545f454e4f5547485f5348415245530000000000000000000000000000006044820152606401610a20565b3360009081526012602052604081206003018054839290612386908490612c63565b9091555050600954612399906001612c63565b336000908152601260209081526040808320600401939093556009548252600c905290812060020180548392906123d1908490612c63565b909155505050565b6000610fa582611906565b8282028115158415858304851417166123fc57600080fd5b0492915050565b82820281151584158583048514171661241b57600080fd5b6001826001830304018115150290509392505050565b60075460009073ffffffffffffffffffffffffffffffffffffffff16801580159061251557506040517fb700961300000000000000000000000000000000000000000000000000000000815273ffffffffffffffffffffffffffffffffffffffff85811660048301523060248301527fffffffff000000000000000000000000000000000000000000000000000000008516604483015282169063b700961390606401602060405180830381865afa1580156124f1573d6000803e3d6000fd5b505050506040513d601f19601f820116820180604052508101906125159190612cb3565b8061253a575060065473ffffffffffffffffffffffffffffffffffffffff8581169116145b949350505050565b60007f8b73c3c69bb8fe3d512ecc4cf759cc79239f7b179b0ffacaa9a75d522b39400f60006040516125749190612ce9565b6040805191829003822060208301939093528101919091527fc89efdaa54c0f20c7adf612882df0950f5a951637e0307cdcb4c672f298b8bc660608201524660808201523060a082015260c00160405160208183030381529060405280519060200120905090565b6000806125e8836123d9565b905080600003612654576040517f08c379a000000000000000000000000000000000000000000000000000000000815260206004820152600b60248201527f5a45524f5f5348415245530000000000000000000000000000000000000000006044820152606401610a20565b61265e308261282b565b6040805184815260208101839052309133917fdcbc1c05240f31ff3ad067ef1ee35ce4997762752e3a095284754544f4c709d7910160405180910390a392915050565b60006040517f23b872dd0000000000000000000000000000000000000000000000000000000081528460048201528360248201528260448201526020600060648360008a5af13d15601f3d1160016000511416171691505080612760576040517f08c379a000000000000000000000000000000000000000000000000000000000815260206004820152601460248201527f5452414e534645525f46524f4d5f4641494c45440000000000000000000000006044820152606401610a20565b5050505050565b600061277282610fab565b9050806000036127de576040517f08c379a000000000000000000000000000000000000000000000000000000000815260206004820152600b60248201527f5a45524f5f4153534554530000000000000000000000000000000000000000006044820152606401610a20565b6127e830836128a4565b60408051828152602081018490523091829133917ffbde797d201c681b91056529119e0b02407c7bb96a4a2c75c01fc9667232c8db910160405180910390a45050565b806002600082825461283d9190612c63565b909155505073ffffffffffffffffffffffffffffffffffffffff82166000818152600360209081526040808320805486019055518481527fddf252ad1be2c89b69c2b068fc378daa952ba7f163c4a11628f55a4df523b3ef91015b60405180910390a35050565b73ffffffffffffffffffffffffffffffffffffffff8216600090815260036020526040812080548392906128d9908490612c4c565b909155505060028054829003905560405181815260009073ffffffffffffffffffffffffffffffffffffffff8416907fddf252ad1be2c89b69c2b068fc378daa952ba7f163c4a11628f55a4df523b3ef90602001612898565b600060208083528351808285015260005b8181101561295f57858101830151858201604001528201612943565b81811115612971576000604083870101525b50601f017fffffffffffffffffffffffffffffffffffffffffffffffffffffffffffffffe016929092016040019392505050565b6000602082840312156129b757600080fd5b5035919050565b73ffffffffffffffffffffffffffffffffffffffff8116811461109457600080fd5b600080604083850312156129f357600080fd5b82356129fe816129be565b946020939093013593505050565b600060208284031215612a1e57600080fd5b81356108ef816129be565b801515811461109457600080fd5b60008060008060808587031215612a4d57600080fd5b8435612a5881612a29565b966020860135965060408601359560600135945092505050565b600080600060608486031215612a8757600080fd5b8335612a92816129be565b92506020840135612aa2816129be565b929592945050506040919091013590565b60008060408385031215612ac657600080fd5b823591506020830135612ad8816129be565b809150509250929050565b600080600060608486031215612af857600080fd5b833592506020840135612b0a816129be565b91506040840135612b1a816129be565b809150509250925092565b600080600080600080600060e0888a031215612b4057600080fd5b8735612b4b816129be565b96506020880135612b5b816129be565b95506040880135945060608801359350608088013560ff81168114612b7f57600080fd5b9699959850939692959460a0840135945060c09093013592915050565b60008060408385031215612baf57600080fd5b8235612bba816129be565b91506020830135612ad8816129be565b600181811c90821680612bde57607f821691505b602082108103612c17577f4e487b7100000000000000000000000000000000000000000000000000000000600052602260045260246000fd5b50919050565b7f4e487b7100000000000000000000000000000000000000000000000000000000600052601160045260246000fd5b600082821015612c5e57612c5e612c1d565b500390565b60008219821115612c7657612c76612c1d565b500190565b60007fffffffffffffffffffffffffffffffffffffffffffffffffffffffffffffffff8203612cac57612cac612c1d565b5060010190565b600060208284031215612cc557600080fd5b81516108ef81612a29565b600060208284031215612ce257600080fd5b5051919050565b600080835481600182811c915080831680612d0557607f831692505b60208084108203612d3d577f4e487b710000000000000000000000000000000000000000000000000000000086526022600452602486fd5b818015612d515760018114612d8057612dad565b7fffffffffffffffffffffffffffffffffffffffffffffffffffffffffffffff00861689528489019650612dad565b60008a81526020902060005b86811015612da55781548b820152908501908301612d8c565b505084890196505b50949897505050505050505056fea2646970667358221220ba0c903bafb7faa37fb2e51403c74fe6444caaa4b85402e54538105f2975db8564736f6c634300080d0033",
    "linkReferences": {}
  },
  "methodIdentifiers": {
    "DOMAIN_SEPARATOR()": "3644e515",
    "allowance(address,address)": "dd62ed3e",
    "approve(address,uint256)": "095ea7b3",
    "asset()": "38d52e0f",
    "aum()": "0ab51bac",
    "authority()": "bf7e214f",
    "balanceOf(address)": "70a08231",
    "claimAsset()": "73203593",
    "claimFee()": "99d32fc4",
    "convertToAssets(uint256)": "07a2d13a",
    "convertToShares(uint256)": "c6e6f592",
    "decimals()": "313ce567",
    "deposit(uint256,address)": "6e553f65",
    "epoch()": "900cf0cf",
    "epochExchangeRate(uint256)": "3d770a4f",
    "farmer()": "d811fcf0",
    "feeDistributor()": "0d43e8ad",
    "maxDeposit(address)": "402d267d",
    "maxMint(address)": "c63d75b6",
    "maxRedeem(address)": "d905777e",
    "maxWithdraw(address)": "ce96cb77",
    "mint(uint256,address)": "94bf804d",
    "name()": "06fdde03",
    "nonces(address)": "7ecebe00",
    "owner()": "8da5cb5b",
    "permit(address,address,uint256,uint256,uint8,bytes32,bytes32)": "d505accf",
    "previewClaim(address)": "31ba008c",
    "previewDeposit(uint256)": "ef8b30f7",
    "previewMint(uint256)": "b3d7f6b9",
    "previewProgress(uint256)": "1c4ad915",
    "previewRedeem(uint256)": "4cdad506",
    "previewWithdraw(uint256)": "0a28a477",
    "progressEpoch(uint256)": "c7ba9c72",
    "redeem(uint256,address,address)": "ba087652",
    "setAuthority(address)": "7a9e5e4b",
    "setOwner(address)": "13af4035",
    "startVault(uint256)": "6770e25a",
    "storeAssetForDeposit(uint256)": "7adfc0b7",
    "symbol()": "95d89b41",
    "totalAssets()": "01e1d114",
    "totalSupply()": "18160ddd",
    "transfer(address,uint256)": "a9059cbb",
    "transferFrom(address,address,uint256)": "23b872dd",
    "unlockShareForRedeem(uint256)": "ebb1699f",
    "updateFeeSettings(bool,uint256,uint256,uint256)": "1519b29a",
    "updatePendingUserState(address)": "4fc64bd8",
    "userHasPendingRedeem(address)": "9c117620",
    "userHasPendingUpdate(address)": "3a21cce6",
    "vaultStates(uint256)": "119435a4",
    "vaultUsers(address)": "849efb71",
    "withdraw(uint256,address,address)": "b460af94"
  },
  "id": 10
}