{
  "abi": [
    {
      "inputs": [
        {
          "internalType": "address",
          "name": "_owner",
          "type": "address"
        },
        {
          "internalType": "address",
          "name": "_refiAddress",
          "type": "address"
        }
      ],
      "stateMutability": "nonpayable",
      "type": "constructor"
    },
    {
      "inputs": [],
      "name": "VaultNotSetup",
      "type": "error"
    },
    {
      "anonymous": false,
      "inputs": [
        {
          "indexed": true,
          "internalType": "address",
          "name": "user",
          "type": "address"
        },
        {
          "indexed": true,
          "internalType": "contract Authority",
          "name": "newAuthority",
          "type": "address"
        }
      ],
      "name": "AuthorityUpdated",
      "type": "event"
    },
    {
      "anonymous": false,
      "inputs": [
        {
          "indexed": true,
          "internalType": "address",
          "name": "user",
          "type": "address"
        },
        {
          "indexed": true,
          "internalType": "address",
          "name": "newOwner",
          "type": "address"
        }
      ],
      "name": "OwnerUpdated",
      "type": "event"
    },
    {
      "inputs": [],
      "name": "_entryFeeBps",
      "outputs": [
        {
          "internalType": "uint256",
          "name": "",
          "type": "uint256"
        }
      ],
      "stateMutability": "view",
      "type": "function"
    },
    {
      "inputs": [],
      "name": "_exitFeeBps",
      "outputs": [
        {
          "internalType": "uint256",
          "name": "",
          "type": "uint256"
        }
      ],
      "stateMutability": "view",
      "type": "function"
    },
    {
      "inputs": [],
      "name": "_isFeeEnabled",
      "outputs": [
        {
          "internalType": "bool",
          "name": "",
          "type": "bool"
        }
      ],
      "stateMutability": "view",
      "type": "function"
    },
    {
      "inputs": [],
      "name": "authority",
      "outputs": [
        {
          "internalType": "contract Authority",
          "name": "",
          "type": "address"
        }
      ],
      "stateMutability": "view",
      "type": "function"
    },
    {
      "inputs": [
        {
          "internalType": "address",
          "name": "_user",
          "type": "address"
        },
        {
          "internalType": "uint256",
          "name": "_assets",
          "type": "uint256"
        }
      ],
      "name": "canDeposit",
      "outputs": [
        {
          "internalType": "bool",
          "name": "",
          "type": "bool"
        }
      ],
      "stateMutability": "view",
      "type": "function"
    },
    {
      "inputs": [
        {
          "internalType": "address",
          "name": "",
          "type": "address"
        }
      ],
      "name": "entryFeeBps",
      "outputs": [
        {
          "internalType": "uint256",
          "name": "",
          "type": "uint256"
        }
      ],
      "stateMutability": "view",
      "type": "function"
    },
    {
      "inputs": [
        {
          "internalType": "address",
          "name": "",
          "type": "address"
        }
      ],
      "name": "exitFeeBps",
      "outputs": [
        {
          "internalType": "uint256",
          "name": "",
          "type": "uint256"
        }
      ],
      "stateMutability": "view",
      "type": "function"
    },
    {
      "inputs": [
        {
          "internalType": "address",
          "name": "",
          "type": "address"
        }
      ],
      "name": "isFeeEnabled",
      "outputs": [
        {
          "internalType": "bool",
          "name": "",
          "type": "bool"
        }
      ],
      "stateMutability": "view",
      "type": "function"
    },
    {
      "inputs": [],
      "name": "minimumRefiHeld",
      "outputs": [
        {
          "internalType": "uint256",
          "name": "",
          "type": "uint256"
        }
      ],
      "stateMutability": "view",
      "type": "function"
    },
    {
      "inputs": [],
      "name": "minimumStoredValueBeforeFees",
      "outputs": [
        {
          "internalType": "uint256",
          "name": "",
          "type": "uint256"
        }
      ],
      "stateMutability": "view",
      "type": "function"
    },
    {
      "inputs": [],
      "name": "owner",
      "outputs": [
        {
          "internalType": "address",
          "name": "",
          "type": "address"
        }
      ],
      "stateMutability": "view",
      "type": "function"
    },
    {
      "inputs": [],
      "name": "refiAddress",
      "outputs": [
        {
          "internalType": "address",
          "name": "",
          "type": "address"
        }
      ],
      "stateMutability": "view",
      "type": "function"
    },
    {
      "inputs": [
        {
          "internalType": "address",
          "name": "_user",
          "type": "address"
        }
      ],
      "name": "removeUserOverride",
      "outputs": [],
      "stateMutability": "nonpayable",
      "type": "function"
    },
    {
      "inputs": [
        {
          "internalType": "contract Authority",
          "name": "newAuthority",
          "type": "address"
        }
      ],
      "name": "setAuthority",
      "outputs": [],
      "stateMutability": "nonpayable",
      "type": "function"
    },
    {
      "inputs": [
        {
          "internalType": "uint256",
          "name": "_assetAmount",
          "type": "uint256"
        }
      ],
      "name": "setMinimumDeposit",
      "outputs": [],
      "stateMutability": "nonpayable",
      "type": "function"
    },
    {
      "inputs": [
        {
          "internalType": "uint256",
          "name": "_minimumRefiHeld",
          "type": "uint256"
        }
      ],
      "name": "setMinimumRefiHeld",
      "outputs": [],
      "stateMutability": "nonpayable",
      "type": "function"
    },
    {
      "inputs": [
        {
          "internalType": "address",
          "name": "newOwner",
          "type": "address"
        }
      ],
      "name": "setOwner",
      "outputs": [],
      "stateMutability": "nonpayable",
      "type": "function"
    },
    {
      "inputs": [
        {
          "internalType": "address",
          "name": "_refiAddress",
          "type": "address"
        }
      ],
      "name": "setRefiAddress",
      "outputs": [],
      "stateMutability": "nonpayable",
      "type": "function"
    },
    {
      "inputs": [
        {
          "internalType": "address",
          "name": "_user",
          "type": "address"
        },
        {
          "internalType": "bool",
          "name": "_canDeposit",
          "type": "bool"
        }
      ],
      "name": "setUserOverride",
      "outputs": [],
      "stateMutability": "nonpayable",
      "type": "function"
    },
    {
      "inputs": [
        {
          "internalType": "address",
          "name": "_vaultAddress",
          "type": "address"
        }
      ],
      "name": "setVaultAddress",
      "outputs": [],
      "stateMutability": "nonpayable",
      "type": "function"
    },
    {
      "inputs": [
        {
          "internalType": "address",
          "name": "",
          "type": "address"
        }
      ],
      "name": "userOverrides",
      "outputs": [
        {
          "internalType": "bool",
          "name": "shouldOverrideCanDeposit",
          "type": "bool"
        },
        {
          "internalType": "bool",
          "name": "canDeposit",
          "type": "bool"
        }
      ],
      "stateMutability": "view",
      "type": "function"
    },
    {
      "inputs": [],
      "name": "vaultAddress",
      "outputs": [
        {
          "internalType": "address",
          "name": "",
          "type": "address"
        }
      ],
      "stateMutability": "view",
      "type": "function"
    }
  ],
  "bytecode": {
    "object": "0x60806040526001805460ff60a01b1916600160a01b179055606460028190556003556405d21dba0060045569d3c21bcecceda100000060055534801561004457600080fd5b50604051610c96380380610c9683398101604081905261006391610133565b600080546001600160a01b0384166001600160a01b031991821681178355600180549092169091556040518492919033907f8292fce18fa69edf4db7b94ea2e58241df0ae57f97e0a6c9b29067028bf92d76908490a36040516001600160a01b0382169033907fa3396fd7f6e0a21b50e5089d2da70d5ac0a3bbbd1f617a93f134b7638998019890600090a35050600680546001600160a01b0319166001600160a01b039290921691909117905550610166565b80516001600160a01b038116811461012e57600080fd5b919050565b6000806040838503121561014657600080fd5b61014f83610117565b915061015d60208401610117565b90509250929050565b610b21806101756000396000f3fe608060405234801561001057600080fd5b50600436106101425760003560e01c80637a9e5e4b116100b8578063aed11c9d1161007c578063aed11c9d146102bc578063bf7e214f146102cf578063c4e43f87146102e2578063d3ff209d146102f5578063e1dddf5c14610309578063e78ec42e1461031c57600080fd5b80637a9e5e4b1461024d57806385535cc5146102605780638da5cb5b14610273578063921508f614610286578063a1e1d1fa1461029957600080fd5b80632bc68bf01161010a5780632bc68bf0146101a75780633c20ee63146101b0578063430bf08a146101c35780634cb33947146101ee57806372267d911461023157806373bfc8c21461023a57600080fd5b806302bc4a35146101475780630aa4d4791461015c57806313af403514610178578063158cc9141461018b578063246ed7161461019e575b600080fd5b61015a610155366004610993565b61032f565b005b61016560045481565b6040519081526020015b60405180910390f35b61015a610186366004610993565b61038b565b61015a6101993660046109b0565b610408565b61016560025481565b61016560035481565b6101656101be366004610993565b61043f565b6007546101d6906001600160a01b031681565b6040516001600160a01b03909116815260200161016f565b61021a6101fc366004610993565b60086020526000908152604090205460ff8082169161010090041682565b60408051921515835290151560208301520161016f565b61016560055481565b6006546101d6906001600160a01b031681565b61015a61025b366004610993565b61047a565b61015a61026e366004610993565b610564565b6000546101d6906001600160a01b031681565b610165610294366004610993565b6105b8565b6102ac6102a7366004610993565b6105f3565b604051901515815260200161016f565b61015a6102ca366004610993565b610638565b6001546101d6906001600160a01b031681565b61015a6102f03660046109d7565b61068c565b6001546102ac90600160a01b900460ff1681565b6102ac610317366004610a10565b6106f2565b61015a61032a3660046109b0565b6107a4565b610345336000356001600160e01b0319166107db565b61036a5760405162461bcd60e51b815260040161036190610a3c565b60405180910390fd5b6001600160a01b03166000908152600860205260409020805460ff19169055565b6103a1336000356001600160e01b0319166107db565b6103bd5760405162461bcd60e51b815260040161036190610a3c565b600080546001600160a01b0319166001600160a01b0383169081178255604051909133917f8292fce18fa69edf4db7b94ea2e58241df0ae57f97e0a6c9b29067028bf92d769190a350565b61041e336000356001600160e01b0319166107db565b61043a5760405162461bcd60e51b815260040161036190610a3c565b600555565b60006104556007546001600160a01b0316151590565b61047257604051632466b4d160e01b815260040160405180910390fd5b505060035490565b6000546001600160a01b031633148061050f575060015460405163b700961360e01b81526001600160a01b039091169063b7009613906104ce90339030906001600160e01b03196000351690600401610a62565b602060405180830381865afa1580156104eb573d6000803e3d6000fd5b505050506040513d601f19601f8201168201806040525081019061050f9190610a8f565b61051857600080fd5b600180546001600160a01b0319166001600160a01b03831690811790915560405133907fa3396fd7f6e0a21b50e5089d2da70d5ac0a3bbbd1f617a93f134b7638998019890600090a350565b61057a336000356001600160e01b0319166107db565b6105965760405162461bcd60e51b815260040161036190610a3c565b600780546001600160a01b0319166001600160a01b0392909216919091179055565b60006105ce6007546001600160a01b0316151590565b6105eb57604051632466b4d160e01b815260040160405180910390fd5b505060025490565b60006106096007546001600160a01b0316151590565b61062657604051632466b4d160e01b815260040160405180910390fd5b5050600154600160a01b900460ff1690565b61064e336000356001600160e01b0319166107db565b61066a5760405162461bcd60e51b815260040161036190610a3c565b600680546001600160a01b0319166001600160a01b0392909216919091179055565b6106a2336000356001600160e01b0319166107db565b6106be5760405162461bcd60e51b815260040161036190610a3c565b6001600160a01b03909116600090815260086020526040902080549115156101000261ffff19909216919091176001179055565b60006107086007546001600160a01b0316151590565b61072557604051632466b4d160e01b815260040160405180910390fd5b6001600160a01b03831660009081526008602052604090205460ff161561076d57506001600160a01b038216600090815260086020526040902054610100900460ff1661079e565b61077683610885565b156107835750600161079e565b60045461078f84610903565b6107999084610aac565b101590505b92915050565b6107ba336000356001600160e01b0319166107db565b6107d65760405162461bcd60e51b815260040161036190610a3c565b600455565b6001546000906001600160a01b03168015801590610865575060405163b700961360e01b81526001600160a01b0382169063b70096139061082490879030908890600401610a62565b602060405180830381865afa158015610841573d6000803e3d6000fd5b505050506040513d601f19601f820116820180604052508101906108659190610a8f565b8061087d57506000546001600160a01b038581169116145b949350505050565b6006546005546040516370a0823160e01b81526001600160a01b03848116600483015260009316919082906370a0823190602401602060405180830381865afa1580156108d6573d6000803e3d6000fd5b505050506040513d601f19601f820116820180604052508101906108fa9190610ad2565b10159392505050565b60075460405163907e98cd60e01b81526001600160a01b0383811660048301526000921690819063907e98cd90602401602060405180830381865afa158015610950573d6000803e3d6000fd5b505050506040513d601f19601f820116820180604052508101906109749190610ad2565b9392505050565b6001600160a01b038116811461099057600080fd5b50565b6000602082840312156109a557600080fd5b81356109748161097b565b6000602082840312156109c257600080fd5b5035919050565b801515811461099057600080fd5b600080604083850312156109ea57600080fd5b82356109f58161097b565b91506020830135610a05816109c9565b809150509250929050565b60008060408385031215610a2357600080fd5b8235610a2e8161097b565b946020939093013593505050565b6020808252600c908201526b15539055551213d49256915160a21b604082015260600190565b6001600160a01b0393841681529190921660208201526001600160e01b0319909116604082015260600190565b600060208284031215610aa157600080fd5b8151610974816109c9565b60008219821115610acd57634e487b7160e01b600052601160045260246000fd5b500190565b600060208284031215610ae457600080fd5b505191905056fea2646970667358221220537b7d089e965e748f8a0803250e6f815f51347287a186e9c744809d75d4817364736f6c634300080f0033",
    "linkReferences": {}
  },
  "methodIdentifiers": {
    "_entryFeeBps()": "246ed716",
    "_exitFeeBps()": "2bc68bf0",
    "_isFeeEnabled()": "d3ff209d",
    "authority()": "bf7e214f",
    "canDeposit(address,uint256)": "e1dddf5c",
    "entryFeeBps(address)": "921508f6",
    "exitFeeBps(address)": "3c20ee63",
    "isFeeEnabled(address)": "a1e1d1fa",
    "minimumRefiHeld()": "72267d91",
    "minimumStoredValueBeforeFees()": "0aa4d479",
    "owner()": "8da5cb5b",
    "refiAddress()": "73bfc8c2",
    "removeUserOverride(address)": "02bc4a35",
    "setAuthority(address)": "7a9e5e4b",
    "setMinimumDeposit(uint256)": "e78ec42e",
    "setMinimumRefiHeld(uint256)": "158cc914",
    "setOwner(address)": "13af4035",
    "setRefiAddress(address)": "aed11c9d",
    "setUserOverride(address,bool)": "c4e43f87",
    "setVaultAddress(address)": "85535cc5",
    "userOverrides(address)": "4cb33947",
    "vaultAddress()": "430bf08a"
  },
  "id": 11
}